:100000000C94971B0C94BF1B0C94BF1B0C94BF1B30
:100010000C94BF1B0C94BF1B0C94BF1B0C94BF1BF8
:100020000C94BF1B0C94BF1B0C94D32D0C94422E2C
:100030000C94BF1B0C94BF1B0C94BF1B0C94BF1BD8
:100040000C94BF1B0C94BF1B0C94BF1B0C94BF1BC8
:100050000C94BF1B0C94BF1B0C94BF1B0C947430EE
:100060000C94BF1B0C94BF1B0C94BF1B0C94BF1BA8
:100070000C94BF1B0C94BF1B0C94BF1B0C94BF1B98
:100080000C94BE300C94BF1B0C94BF1B0C94BF1B74
:100090000C94BF1B0C94BF1B0C94BF1B0C94BF1B78
:1000A0000C94BF1B0C94BF1B0C94BF1B8040000022
:1000B0000000000000000000000000000000000040
:1000C000000000000000000000000000000000C070
:1000D00060D8F4DC745C745C785878D0F0D060C080
:1000E000E0602000004040C0808888F8FCFCFCFCF8
:1000F000FCFCFCFCF8F8F0F0E0E0C088183870D8A0
:10010000F0D870D870D870D8700000E0F0F0E0C07F
:10011000C080800040C0808000000000000000001F
:1001200000000000000000000000000000000000CF
:10013000000000000000000000000000C0E0F0F03F
:10014000F0F0F0F0E08080C0C0E4E4E4E6E5E7E54C
:10015000E7E7E1F8FCFEFEFEFEFEFEFC3801C3F11F
:10016000F83C0EC703633280E1FFFFFFFFFFFFFF94
:10017000FFFFE7E7C7C3C3839999BDBDFDFEFCF050
:10018000C1070F4FE767B3B138FCFEFFFFFF6F4FAA
:100190004F4F8FFFFEFEFCF9F3E5CF1D375FFED812
:1001A00070D070E0000000000000000000000000BF
:1001B00000000000000040C0600000FFFFFFFFFFE4
:1001C000FFCFC7E7F3F3F3F7E7EFFFFFFFFFFFFF13
:1001D000FFF7F3F9FDFCFCFCF9FBFF0700F8FBFB64
:1001E000FBFCF83C9CCEE707030301010101010180
:1001F00001010103030767CF9F3FFFFFFFFFFFFFE1
:10020000FFFFF80007FCFDFDFEFF03098CAE86C072
:10021000E07E3C81FFFFFFFFFFFF1FCF0E1C38E198
:10022000871D77DF70C08000000000000000000024
:1002300000C070D876DDF7DDF700003F3FFFFFFF1D
:10024000FFFFFFFFFFFFFFFFFFFBF9FDFDFDFDFDD2
:10025000FDFFFF7F7F7F7F7F7F7F7F6000073F7F86
:100260007F7FE08000607078787878787870F0F838
:10027000FCFCFCFCFCFCFCF8700080FFFFFFFFFFB7
:10028000FF7F0F80E0FFFFFDFFFBFBFEFEFEFEFE9B
:10029000FEF6F7F7F7F7E78FFFFFB0E2485CCEE036
:1002A000FF0000FFFFFDFFF8F4FCF0D8F0C0F8FC01
:1002B000FFFDFFFF7F3FBF9FDF5F504040414FDFAB
:1002C0008FE73797D7D79737E7E73793DBCB6B6B5A
:1002D000EBEBE8CE8339FDFDFDFDFDCDCDFDFD79D8
:1002E00003CEE8EBC80EE3F97D3D7DF9E386327A73
:1002F0007A7AFAFAFAFA7A7A3286B23AFAFAFAFAA2
:100300007A7A7A3286CCE9EBEBEBCB1B73C7CF6FF3
:1003100027B797D7D7D7D7D79727AFAF2F6FCFC7E5
:1003200051585E5F5F5FDF9F3FFFFFFFFFFF3F9F13
:100330004F4F01FC8633F9FCFEFEFFFFF3F3FEB8DE
:10034000BBFBF0E70FFFFFC0EFE0F6F7670FFEFC27
:10035000FCFFFF7F7F3E80BFBFBFBFBFB9BFBF9E57
:10036000C07C3D614C5E5F4F6676664F5F5F4E605E
:100370007F604F5F5F4F603F7FC398BEBF9FC7F1F5
:10038000C098BEBF9FCFECCC1C7FFFFFFC71007EEE
:10039000FFFFFFE7C3DBDBC3993CFFFFE7F0F9FC9E
:1003A000FE9F1F4FE7B2180F001C745971DF010048
:1003B00000000000030E183367CF9FBFBF9FDF4FC1
:1003C0006F27B3D8CCE9EBEBE9EDE4F6F2FAFAFAF1
:1003D000FAFAFAFAFBFBF9FCFEFEFEFEFEFEFEFE5A
:1003E000FEFEFFFFFFFFFFFFFFFFFFFFFFFFFFFF1F
:1003F000FFFFFFFFFFFFFFFFFEFEFEFEFEFEFEFE15
:10040000FEFEFEFEFEFEFCF9FBFAFAFAFAFAF3E64D
:10041000ECEDE9EBEBEBCBDBD1D4D7D7D1DD99B366
:1004200027AF2F26301F0F00000000000000000043
:1004300000000000000080C060D070DC74DC74DC60
:10044000FFFFFFFFFFFFFFFFFFFFFFFFFFFFFFFFBC
:10045000FFFFFFFFFFFFFFFFFFFFFFFFFFFFFFFFAC
:10046000FFFFFFFFFFFFFFFFFFFFFFFFFFFFFFFF9C
:10047000FFFFFFFFFFFFFFFFFFFFFFFFFFFFFFFF8C
:10048000FFFFFFFFFFFFFFFFFFFFFFFFFFFFFFFF7C
:10049000FFFFFFFFFFFFFFFFFFFFFFFFF7DDF7DDC0
:1004A00077DD77DC74DC74DC78D060C000003C3829
:1004B000000000000080F8FE0FE3FB1B0B0B8BFB22
:1004C000F3F7F6F6F60606ECECECECECECECECEC08
:1004D000ECECECECECEEE6F6F6F6F7F3FBFBCBCB54
:1004E000FBE30FFEF8801E332121339E00000080C5
:1004F000F8FF0FE0F8F9F9F9F9F9F9F9F1F3F3F385
:10050000F3F0F0FFFFFFFFFFFFFFFFFFFFFFFFFF25
:10051000FFFFFFFFFFFFFFFFFFFFFFFF7F7FFEE00B
:100520000FFFF880060600000000000F3FF0C6072E
:100530000404070707070707070707070707FFFF61
:10054000FFFFFFFFFFFFFFFFFFFFFFFFFFFF0707AB
:10055000070707078787070726860707C6F03F1F95
:1005600000808000000000000000030784C4E4E471
:10057000E4E4E4E4E4E4C49C000FE7E7E7E7E7E74A
:10058000E7E7E7E7C7870F1F0FC7E7E0ECE4E4E41E
:10059000E5E5E4C4040404070300C040C3031100FC
:1005A0000000000000000000FFFFFFFFFF393939A5
:1005B000FFFFFF0FE0E0EFEF0FFFFF183879FFFFBD
:1005C000F703E0E0EFEF0FFFF9F0F0FCFDFDFD0DAC
:1005D000ECE0E0E00000012101000000000080C02C
:1005E000602060C080000000000C0C007EFE803C9B
:1005F0003E1C1C1C1C1C0C0C0E0C0C0C0C0E1E1C93
:100600001C1C1C3C3E80FE7E00000000C0E0E0C0E0
:1006100000000000030300000E1B3166C680D0609E
:10062000311B0E00003828380001471E38202020DA
:1006300020301010D0D01010901030202020203802
:100640001E07010000060600000101000000000076
:10065000000000005D087F417777417F4155555D7F
:100660007F415F50507F417515111F0000007F4191
:100670007515117F415F50507F416D6D417F11773E
:1006800047711F000000775D415D7F417B366F4100
:100690007F4175151D7F415D5D417F0000007F41F9
:1006A0005D5D7F415D5D417F417B366F417F41757F
:1006B000151D07191000FFFEFFFEFFFEFFFEFFFEE7
:1006C000FFFEFFFEFFFEFFFEFFFEFFFEFFFEFFFE42
:1006D000FFFEFFFEFFFEFFFEFFFEFFFEFFFEFFFE32
:1006E000FFFEFFFEFF00FF000703070307030703EA
:1006F00007030703070307030703070307030703AA
:100700000703070307030703070307030703070399
:100710000703070307030700077518000000808020
:10072000C0404040404040C080E03090D0D0903049
:10073000E0E03090D8C86868E8E8E8CE8339FDFD8D
:10074000FDFDFDCDCDFDFD7903CEE8E8C80EE3F952
:100750007D3D7DF9E386327A7A7AFAFAFAFA7A7A84
:100760003286B23AFAFAFAFA7A7A7A3286CCE8E83B
:10077000E8E8C81870C0C06020B090D0D0D0D0D009
:100780009020A0A02060C0C0404040404040C080B9
:10079000FC8633F9FCFEFEFFFFF3F3FEB8BBFBF073
:1007A000E70FFFFFC0EFE0F6F7670FFEFCFCFFFF6F
:1007B0007F7F3E80BFBFBFBFBFB9BFBF9EC07C3D74
:1007C000614C5E5F4F6636664F5F5F4E607F604F85
:1007D0005F5F4F603F7FC398BEBF9FC7F1C098BEA9
:1007E000BF9FCFECCC1C7FFFFFFC71007EFFFFFFA3
:1007F000E7C3DBDBC3993CFFFFE7F0F9FCFE9F1F7B
:100800004FE7B2180F00030E183367CF9FBFBF9F8B
:10081000DF4F6F2733180C090B0B090D040602027A
:1008200002020202020203030100000000000000B5
:1008300000000000000000000000000000000000B8
:1008400000000000000000000000000000000000A8
:10085000000000000000000000010302020202028A
:1008600003060C0D090B0B0B0B1B11141717111D95
:100870001933272F2F26301F0F00591800000000B2
:1008800000000000001F111111809F91911F809F97
:1008900091910E809F959591009B000000000000B3
:1008A0000E9991970600009890909F009F91919FBC
:1008B000009195979F009F89999780119F918080C3
:1008C00000808080008000000080008080808000A8
:1008D0008000000000000000000000000000000098
:1008E00000000F04040F000F040C0B0000000F00A9
:1008F00000000D000000000000070C080B030000C2
:100900000F080808000F04040F000B0A0A0E00006D
:10091000000F0000000F04040700080F08000D0777
:1009200002070D000F0A0A08000F0808080008084F
:10093000F8080800D8702070D800000000000808EF
:10094000F8080800F88888F800000000000070C867
:1009500088B8300000F880808000F8A8A88800D807
:10096000702070D800F84848F800F880808000F8BF
:100970008888F800F828280800F828280800F88057
:10098000808000F8A8A88809080000001E0C3F1EFF
:100990003F1E3F1E3F0C3F001E00000000000000F5
:1009A000FC78FEFCFE78FE00FC0000000000E04049
:1009B000F060F0E0F0E0F0E0F060F040F000E00027
:1009C0000102000000000000000001000000000122
:1009D0000203040504030242087F515555457F4137
:1009E0005D5D417F415F5F417F417B366F417F416C
:1009F0005D5D633E00000000007F415D5D417F4121
:100A000075151D7F4175151D0700000000007F4111
:100A10005D5D417F417B776F417F00141000FFFED9
:100A2000FFFEFFFEFFFEFFFEFFFEFFFEFFFEFFFEDE
:100A3000FFFEFFFEFFFEFFFEFFFEFFFEFFFEFFFECE
:100A4000FFFEFF00FF000703070307030703070379
:100A50000703070307030703070307030703070346
:100A6000070307030703070307030700070308003B
:100A70000E000D000F020A080E0A00181B00080ADB
:100A800002000A021E1E00000A00080A002D10FEC5
:100A900083017D7D7D017D7D7D017D7D7D017D7D70
:100AA0007D017D7D7D017D7D7D017D7D7D017D7D66
:100AB0007D017D7D7D017D7D7D0183FE0001010144
:100AC0000101010101010101010101010101010116
:100AD0000101010101010101010101010101010106
:100AE0000101010101010101003A28C6FEF3FFF9ED
:100AF000FFFDFFFCFFFEFFFEFF7EFF7EFF7EFF7E11
:100B0000FF7CFFFDFFFDFFF9FFF3FFC6FE1CFC703D
:100B1000F0C0C00000000000000000000000000065
:100B200000000000000000000000000000000000C5
:100B300000000000000000000000000000000000B5
:100B400000000000000000000000000000000000A5
:100B5000000000000000000000000000000000FF96
:100B6000FFFFFFFFFFFFFFFFFFC1FF00FF3CFF7E16
:100B7000FFFFFFFFFFFEFFFCFFFFFFFFFF7FFF1FE9
:100B8000FF00FF80FFBFFFA0E0A0E0A0E020E0604A
:100B9000E040C00000000000000000000000000075
:100BA0000000000000000000000000000000000045
:100BB0000000000000000000000000000000000035
:100BC0000000000000000000000000000000000025
:100BD000000000313F677FCFFF9FFFBFFF3FFF7FD8
:100BE000FF7EFF7CFFFCFFFDFFFDFFFDFFFCFF7CA8
:100BF000FF7EFF7EFF7FFF3FFF3FFF3FFF3FFF7F07
:100C0000FFFFFFFFFFFEFF3CFF18FEC0FCE0F8F017
:100C1000F8F0FCF0FEF4FF66FF0EFFBEFF3CFF3C69
:100C2000FE387E387C187C003C000000000000008C
:100C300000000000000000000000000000000000B4
:100C400000000000000000000000000000000001A3
:100C50000101010101030302030203020302030273
:100C6000030001000100000000000000000000007F
:100C7000000000000100FF71FFFCFFFEFFFFFFFF0F
:100C8000FFFFFFEFFFE3FFF1FFF8FFFCFF7EFF3FF9
:100C9000FF9FFFC6FFF0FFF0FC60F800F000C0000F
:100CA00080000000000000000000000000000000C4
:100CB0000000000000000000000000000000000034
:100CC0000000000000000000000000000000000024
:100CD0000000000000000000000000000000000014
:100CE00000008000C080E0C0E0C0F890FD38FF71D7
:100CF000FF67FFEFFFEFFFCFFF8FFF3FFF7FFF7E1D
:100D0000FF7EFFFFFFFFFFF3FF79FF7CFF3EFF1F2A
:100D1000FFC7FFE0FFF0FFF8FC78FE7CFEFCFEF86A
:100D2000FEF8FCF0FCE0F8E0F0C0F000E0008033FA
:100D300033321A181A432800000000F0F01FFFC1D8
:100D4000FFFCFFFFFFFFFFFFFFFFFF3FFFFFFFFF76
:100D5000FFFFFFFFFFFFFFFFFFFFFF7FFF23FF837B
:100D6000FF1FFF7FFFFFFF07FF7FFFFFFFFFFFFF6B
:100D7000FFFFFFFFFFFFFFFFFFFFFFFFFFFFFFF989
:100D8000FF03FFFFFFFFFF7FFF3FFF07FF9FFFCF37
:100D9000FFE3FFC7FF1FFF7FFFFFFFFFFFFFFFFF17
:100DA000FFFFFFFFFFFFFFFFFFFFFFE7FF80FF3FAA
:100DB000FFE0E000000000000000000000000080F4
:100DC00080FFFFC0FF1FFFFFFFFFFFC7FF1FFFFFE9
:100DD000FFFEFFF0FF87FF3FFF0FFFC3FFE9FFECC0
:100DE000FFEEFFEFFF4FFF5FFF5EFF5EFFCEFFFCFA
:100DF000FFF1FFE7FFCFFF9FFFBFFF3FFF7FFF3FF9
:100E0000FF9FFFCFFFE3FFF8FFFEFF66FF66FF6E69
:100E1000FF6FFF6FFFEFFFE7FFF7FFF7FFF4FFF153
:100E2000FFE7FF4FFF1FFFBFFF9FFFDFFFDFFFDF7A
:100E3000FFDFFFDFFF80FFBFFF20E060E040C0C0BA
:100E4000C080801F1F313F243F6E7F4E7F5E7FDE5C
:100E5000FF1EFF3EFF2EFF6CFFC9FF8BFF9BFF00B5
:100E6000FF7FFFF7FFF1FFF8FFFCFFFEFFFEFFFE35
:100E7000FFFEFF7EFF7EFF7EFF7FFF7FFF7FFF7B0A
:100E8000FF73FF77FF7FFF7FFF7FFF7FFF7EFFFE08
:100E9000FFFEFFFEFFFEFFFEFFFEFFFCFFF8FFF17F
:100EA000FFF7FF3FFFFFFFF9FFFCFFC7FF63FF33C3
:100EB000FF19FF99FFCDFFEDFF0DFFE7FF373F174C
:100EC0001F171F161F101F1F1F000000000000002B
:100ED000000000000001010F0F383F637FCEFF9E2E
:100EE000FFBCFF3BFF73FF66FF0FFF7FFFFFFFFFAE
:100EF000FFFFFFFFFF01FF64FFF6FFF6FFF7FFFFB5
:100F0000FF7FFF7FFF7FFF7FFF7FFF7FFFF7FFF701
:100F1000FFF7FFF6FF66FF04FF81FFFFFFFFFFFF04
:100F2000FFFFFF7FFF0FFFC1FF1CFF5FFFCFFFC071
:100F3000FFE6FF7CFF00FF87FFCFFF637F383F0E98
:100F40000F0303000000000000000000000000008C
:100F50000000000000000000000000000000000091
:100F60000000000000000001010101010101010772
:100F7000070C0F191F333F273F0F1F0F3F1E7F1E08
:100F8000FF3EFFBEFFFEFFFEFFFFFFFFFFFFFFFF75
:100F9000FFFEFFFEFFFEFFBEFF3EFF1EFF1F7F4F57
:100FA0007F6F7F677F73FF19FFDCFF4F7F677F379E
:100FB0003F121F181F0C0F0407060703030101004F
:100FC0000000000000000000000000000000000021
:100FD00000000000000004024620000000000000A5
:100FE0000000000000000000000000000000000001
:100FF00000000000000000000000000080808080F1
:10100000C0C040C040C078F80CFCE6FEF4FCF0F82C
:1010100000F800F8F8F8F8F8F8F8F8F8F8F8F8F840
:10102000F8F8F8F8F8F8F8F878F800F880F8F8FC2C
:10103000F8FCF0FC04FC06FE70F050D0C0C08080CC
:1010400080800000000000000000000000000000A0
:101050000000000000000000000000000000000090
:101060000000000000000000000000000000000080
:10107000000000008080C0C060E020E0B0F098F880
:10108000CCFCE6FEF3FFF9FFFDFFFCFFFEFFFEFFD9
:10109000FFFFFFFFFEFFF8FFF3FFE7FFCFFFDEFFDD
:1010A0009EFFBCFFBDFFBDFFBDFFBDFFBDFFBDFF80
:1010B000BCFF9EFFDEFFCFFFEFFFE7FFF3FFF9FF6F
:1010C000FCFFFFFFFFFFFEFFFEFFFCFFFDFFFDFF3C
:1010D000FDFFF9FFFBFFFAFEFAFEF2FEF6FEF4FC5E
:1010E000E4FCECFCC8F898F830F0E0E00000000008
:1010F000000000000000C0C070F018F8CCFCE7FF52
:10110000F9FFFCFFFEFFFFFFFFFFFFFFFFFFFFFFF9
:10111000FFFFFFFFFFFFFFFFFFFFFFFFFFFFFFFFDF
:10112000FFFFFFFFFFFFFFFFFFFFFFFFFFFFFFFFCF
:10113000FFFFFFFFFFFFFFFFFFFFFFFFFFFFFFFFBF
:10114000FFFFFFFFFFFFFFFFFFFFFFFFFFFFFFFFAF
:10115000FFFFFFFFF8FFE1FF81FF33FFF3FFE7FF32
:10116000CFFFDFFFCFFFE7FFF3FF79FF3CFF9CFFDF
:10117000CCFFE9FFE0FFF7FFF4FCE4FCCCFCF8F85F
:101180000FFFE1FFFCFFFFFFFFFFFFFFFFFFFFFF80
:10119000FFFFFFFFFFFFFFFFFFFFFFFFFFFFFFFF5F
:1011A000FFFFFFFFFFFFFFFFFFFFFFFFFFFFFFFF4F
:1011B000FFFFFFFFFFFFFFFFFFFFFFFFFFFFFFFF3F
:1011C000FFFFFFFFFFFFFFFFFFFFFFFFFFFFFFFF2F
:1011D000FFFFFFFFFFFFFFFFFFFF7FFF3FFFBFFF9F
:1011E0009FFFC7FFF1FFFCFFFFFFFFFFFFFFFFFFB8
:1011F0000FFFE3FFF8FFFEFFFFFFFFFFFFFFFFFF13
:10120000FFFFFFFFFFFFFFFFFFFF2220210208BBC0
:10121000EE1F10E104E5E5E5050D49D810B1E7CF73
:101220009FBF3F3F9FCFE7B11003096D6584E6E69E
:1012300006E0873EFCF9EBEBFAEAFAFEFFFFFFDF80
:10124000DFDFFFFFFFFF7F7A7AEAFAEBEBF9FC3E84
:101250000FC108CBCBCB0B0B5BD230B1E7CF9FBF1D
:101260003F3F9FCFE7A130131B49498DCDCD0DC81E
:10127000873EFCF9EBEBFAEAFAFEFFFFFFDFDFDF68
:10128000FFFFFFFF7F7A7AEAFAEBEBF9FC3E0F8172
:1012900014979797171737AE6861E7CF9FBF3F3F07
:1012A0009FCFE76120371757139B9B9B1B98873E67
:1012B000FCF9EBEBFAEAFAFEFFFFFFDFDFDFFFFFEF
:1012C000FFFF7F7A7AEAFAEBEBF9FC3E0F31383B0D
:1012D0003B3B7B7B7B7A7071E7CF9FBF3F3F9FCFCC
:1012E000E77170737B797D3D3D3D1D18873EFCF9AC
:1012F000EBEAF8E8F8FCFFFFFFDFDFDFFFFFFFFFAF
:101300007F7A78E8F8EAEBF9FC3E0F717CFDFDFD91
:10131000FDFDF9F8F0F1E7CF9FBF3F3F9FCFE7F129
:10132000F0F3F9FDFDFCFE7E7E78863CFCF8E9E9F1
:10133000F9E9F9FDFFFFFFDFDFDFFFFFFFFF7D7949
:1013400079E9F9E9E9F8FC3C0E0001020304010027
:1013500000000000000000000000000000004D4000
:10136000BBEEBBEEBBEEBBEEBBEEBBEEBBEEFB0FD4
:10137000E1FCFFFFFFFFFFFFFFFFFFFFFFFFFFFF9E
:10138000FFFFFFFFFFFFFFFFFF7F7F3FBFBF9FDF2D
:10139000DFCFEFEFCF9F3FFFFFFFFFFFFFFFFFFF1D
:1013A000FFFFFFFFFFFFFFFC01FFBBEEBBBBEEBB80
:1013B000EEBBEEBBEEBBEEBBEEBBFF00FEFFFFFFE6
:1013C000FFFFFFFFFFFFFFFFFFFFFFFFFFFFFFFF2D
:1013D000FFFFFFFFFFFEFEFFDFDFDF9F1F5FDF9FDF
:1013E000BF3F7F7EF8C31FFFFFFFFF7FFFFFFFFFB1
:1013F000FFFFE38B19DCFFBBEEBBBBEEBBEEBBEE2E
:10140000BBEEBBEEBBEEBBFF803FFFFFFFFFFFFF6E
:10141000FFFFFFFFFFFFFF7F3F91C79F3F7F037FDE
:10142000FFFFFFFFFFFFFFFFFFFFFC017F7F3F8FFD
:10143000E0E6CE1E7FFFFFFFFEFC019FDFCFE773DC
:10144000F9FC1DCDE1FFBB7B0EE7F3F9FDFCFEFED1
:101450007E7E3E3E3E3E3E7CFDF9F3C71F30071FB9
:101460007FFF0700000000000000000000000000F7
:10147000000000000000000000000000000000006C
:10148000000083BF8FE7F11C87C3F97C1EC7F006FD
:10149000FFBBEEBB007FFFFFFFFFFFC3007CFEFF33
:1014A000FFFFFFFEF8FF7F3F8FC09FBE1C78F8E074
:1014B000000000000000000000000000000000002C
:1014C00000000000000000000000000000000041DB
:1014D00047D31B3BFBF3E10CEEE7B3F8BEEFBBEEEB
:1014E000BBBFFCB1E7CFDF9FBF3F7EFCFDF9F9F941
:1014F000F1F4E6CE1F7BEE7B6F3BAEBE9CD1C6CC3B
:10150000D9933787EF4F1F9FBFBD3D7D7D7D7C3ECB
:10151000BEBD9C1FCFEF8733E1CCDEDFCFE6F0BA54
:10152000EBBBE9BCEEBBEEBBEEBBEEBBEEBBBBEE7A
:10153000BBEEBBEEBBEFBBEEBCF9630FFFFFFFFFE3
:10154000FFFF00FEFEFFFFFF3F9FFFFFFFFFE08E5C
:101550003F7FF8F0E7EFEFEFEFEFEFEFE7F7F3792B
:101560003C9FCFE3F8FE3E7E7EFEFEFEFEFCFDFDD0
:10157000FDF9FBFAF3F6E7CE9B3EFBBBEEBBEEBB01
:10158000EEBBEEBFE3C99C3E00FFFFFFFFFFFF0085
:10159000FFFFFF07003E7FFFFFFFFFFFFFFFFEFE95
:1015A000FCFDFDFDFDFDFDFDFDFDFDFCFEFFFFFF66
:1015B000FFFFFFFF78000000193973E7EFE7F3F949
:1015C0003D9CCEE6F4F1381B4D40BBEEFF06F3FA2E
:1015D000FBFAFBFAFBFAFBFAFBF2873E07F1FCFE93
:1015E000FFFFFF7F7F3FBFBF3FBFFFFFFFFFFFFF4B
:1015F000FFFFFFFFFFFFFFFFFFFFFFFFFFFFFFFFFB
:10160000FFFFFFFFFFFFFFFFFFFFFFFFFFFFFFFFEA
:10161000FFFFBFEFBBEEBBBBEEFF00FFFFFFFFFF17
:10162000FFFFFFFFFFFFFFFFFFFEFEFEFEFEFEFCD3
:10163000018FBF017CFFFFFFFFFFFFFFFFFFFF1FC9
:10164000FFFF7F3C819F9F3F7FFFFFFFFFFFFFFF6B
:10165000FFFFFFFFFFFF7F3FBF9FDFCFEFEF6F2B4E
:101660008EFBEEBB3B9EDF00FFFFFFFFFFFFFFFF98
:10167000FFFFFFFFFF7F3FBFBF3FBFBF9FC00BEB21
:101680008B18193327CFDF9FBFBF9FC7E0FDFC9E9C
:10169000CBCB090DC5C406E4E1630F7F7F1FC76391
:1016A000391C8EC6F7FF7F3F8FE3B8EEBBEFBBEE72
:1016B000BBFEFFFFF0278FCFCF0FEFEFEFEFEFEF86
:1016C000C710FEBBEEBBEEB8F3A7EF0079B3AEECEC
:1016D000ABF8FFFFBFBFBFFFFFFFFFFFFFFFFBFA3E
:1016E000FAFAFA3A99CC663793DB5B19CDEDEDED5A
:1016F000EDEDEDEDECEDEDC9DBD3C6CFCEDB8F3FED
:10170000FFFFE08F3F7FFFFFFFFFFF7F3F8FE0FF87
:10171000BBEEBBEEBBEEBBEFBFFCB1E7CF9FBF3F65
:101720007F7D7DFDEDEDFDFD783AB89ECFEFE7F0D2
:1017300072FBF9FCFFFFFFC0DFDFDFCFEFEFEFEF62
:10174000E7F7F7F7F7F7F7F7F7F7F7BBEEBCF9B3FB
:10175000F7CF9E3EFEFEFCF0461F3FBB2E7BEEBB4E
:10176000EEBBEEBBEE7B2EBB9EDFCEEFEFA7970668
:10177000F2FAFA0AE0FCFFFFFFFF7F3F8FE0F9FD7E
:10178000FFFFFFFFFFFFFFFFEF0FFFFFFFFFFFFF69
:10179000FF1FDF9F3FFFFFFFBBEEFB1ECBEEEBEF1C
:1017A000EEE8E1E1ECEEEFEFEFEFEEE0EFEEEFE78A
:1017B000E1ECEEEFEFE7E3E9EFEFEFEFECE9EBEB76
:1017C000E0EFEFE7E3E9CC1EFFFFFF7F3F9FDFF392
:1017D000791FC7F0FBFB00FFFFFFFFFFFFFFFEE0ED
:1017E0000EF8C31FFFBBEEBFF0A7EFEF2F8FEFEF99
:1017F000EFEFEFEFEFEFEFEFEFEFEFEFEF0FEFEFD9
:10180000EFEFEFEFEFEFEFEFEFEFEFCF8FAF2F6FE8
:101810006F6F6F6730BF9FDFCFE7F3F9FCFEFF3FCD
:1018200087F3F9FCC11FFFFFFFFFFFFFFFF803FF76
:10183000FCC1BBEEFF06F3FAFBFAFBFAFBFAFBFA7C
:10184000FBF2873E7BEEBBEEBFF0079F3FFFFFFF43
:10185000FFFFFFFFFFFFFFFFFFFFFFCF9F3FFF7F68
:101860007F7F3F3FFFFFFFFFFFFFFFFFFFFFFFFF08
:10187000FFFFFFFFFFFF7F7F3FBFDFDFDFDF5FBBDC
:10188000EEFF00FFFFFFFFFFFFFFFFFFFFFFFFFF78
:10189000FFFEFEFEFEFEFEFC01FE0833276F5F3FEB
:1018A0007FFFFFFFFFFF007F1FC7F0DC4E6F2F277A
:1018B000373039230F9F7F7FFFFFFF7F1F8FE77335
:1018C0003B399CDEFFFFFF3F8F63399C07F3F90034
:1018D000FFFFFFFFFFFFFFFFFFFFFFFFFF7F3FBF98
:1018E000BFBFBFBF9FC0E700C79EB0A0ACA1A6FC12
:1018F000FDFDFDFCFFFFFFFFF8FCDEDED8D0D0D3FE
:10190000D3C8EFE7F2FEFEFEFCFF9DB8B0969F4FF6
:101910002FB3C1F0BCEEBBEFBB803FFFF0E7EFEFB2
:10192000EF0F6FEFEFEFEF0FE7B0FEBBEFBBEEBBDC
:10193000EEBBEEBBEEB8E79F3F7FFFFFFFED8D0DE7
:101940000F0F0F0FCFE7F7F7F7F7F7F37B7B3BBBF3
:101950009BDBCBEBE3F3F3FBFBF9FCFCFCFDCD8D58
:101960002D65F1F3E6CFBFFCB1E7CF1FDFDFDFDE90
:10197000CFFF07F0BEEFBBEEBBEEBBEEBBEEBBEEA8
:10198000BBEEBBEEBBEFBEECBCE9BBF3B3F6662C23
:10199000ACA9AB0BC3F3F9FDFCFEFFFFFFFFFFFF9C
:1019A000FFFFFFFF7F7F7F7F7F7F7FFFFFFFFEFCCB
:1019B000F1E7CFBBEEFB3E1FC0CFDF9F3F3F7F0075
:1019C000F3F7E60FFEBBEEBBEEBBEEBBEEBBEEBB32
:1019D000EEFB6E3B9ECBEE677637A08EDFDF0FE02F
:1019E000FEFFFFFFFFFFFF3F0F87E3F1793C9CCE37
:1019F000E6E6F3FBF8FCFEFFFFFFFFFFFFFFFFFF44
:101A0000BBEEFF18C1E7E7EFEFEFEFEFEEE0EFEF30
:101A1000E0E7EFEEEBEEEBEEEBEEEBEEEFE3E8EE16
:101A2000EFEFE3E8EEEFEFEFEFEFEFEEE8E3C717EE
:101A3000F7F7F3F8FCFFFF8338FEFFFFFFFFFFFF20
:101A40007F3F9FCFE7F3FBF9FDFFFFFFFFBBEEBF3B
:101A5000F0878F2FAFEFEFEFEFEF8F2FEFEFEFEF7D
:101A60008F2FEFAFEFAFEFAFEF0FEFEF0FEFEFEF26
:101A7000EFEFEFEFEFEFEFEFEFEFEFE7F0FFFFFF4D
:101A8000FFFF1FC7F1FEFCF9FBF3C3993C7EFFFF8C
:101A9000FFFFFF7F3FBF9FCFE7F7BBEEFF06F3FAE5
:101AA000FBFAFBFAFBFAFBFAFBF3803F7FF0873F80
:101AB000FFFFFFFFFFFFFFFFFFFFFFFFFFFFFFFF36
:101AC000FF9F3F7FFFFFFFFFFFFFFFFFFFFFFFFFC6
:101AD000FFFF7F3FBF9FDFDF9F3FFFFFFFFFFFFF56
:101AE0007F7F7F7F7FFF7FBBEEFF00FFFFFFFFFF5A
:101AF000FFFFFFFFFFFFFFFFFFFEFEFEFEFEFEFCFF
:101B0000013F7F7FFFFFFFFFFFFFFFFF01FF7F1F01
:101B1000407339BDBCDED8E36F4F5F1F0FE3F8FEA3
:101B2000FFFFFFFF7F1FC0E77379FDFCFEFF3F8FC4
:101B3000E7703C9EBBEEFF00FFFFFFFFFFFFFFFFD4
:101B4000FFFFFFFFFF7F3FBFBFBFBFBF9FC001F2CF
:101B5000820061093BF3F7F7F7F0FDFCFEFEFFF3AF
:101B6000F9786040404C4C0000FEFFFFFFFFFFFF94
:101B7000FF00C1587C3EBFCF07C3F0FAB9ECBEEFFF
:101B8000BBBBEEBFF0A7EFAFEFAFEFAFEFAFEFAF85
:101B9000E7B0FEBBEFBBEEBBEEBBEFFEC01D7DFDB5
:101BA000FDFDF7971F1F1F1F1F1F1F5F5F0FCFFF39
:101BB000FFFFFFFFFF7E00BFBF9FDFDFCFEFEEE045
:101BC000F2F2E1ECEECB9F3BEEBBEEBBEEBBBBEE2D
:101BD000BBEEBBEEBBEEBBEEBBEEBBEEFB6E7B6EBD
:101BE0007B6E7B6EFBEEBBEEBBEFBBEEBCF9B3E7EF
:101BF000EFCEDCD898B0B03098CCE6F7F3FBF9FD27
:101C0000FCFEFEFFFFFFFFFFFFFFFFFFFFFFFFFFE9
:101C1000FFFFFFFFC09933E68F3EFBBBEEBBEEBB81
:101C2000EEBBEEFB1EC7F3F9FC9ECEEFEFCF9F3F5E
:101C3000FEFEFCF1C71FFEBBEEBBEEBBEEBBEEBB78
:101C4000FE83397D3893C7CFEFEFEFE7F7F7F3FB6C
:101C5000FBF9FDFDFDFFFFFFFFFFFFFFFFFFFFFFA4
:101C6000FFFFFF3F80FF00FFBBEEFB1ECBEEEBEE66
:101C7000EFECE1E7EFEFEFEFEFEFEFE7E0EFEFEFA4
:101C8000EFE7E0EFEBEEEBEEEBEEE7E3E9EDECEEAA
:101C9000EFE0EFEFEFEFCF1FBFBF9FDFDFDFCFEF53
:101CA000EFEFFFFFFFFFFFFFFFFFFFFFFFFFFFC0A3
:101CB0001EFF7F00FFBBEEBFF0A7EFAFEFAFEFAFB0
:101CC000EFAFEFAFEF0FEFEFEFEF0FEFEFAFEFAFE4
:101CD000EF2F0FEFEFEFEFEFEFEFEFEFEFEFEFEFB4
:101CE000CF8F2F67707F7F7F7F7F7F7F7F7F7FFF9B
:101CF000FFFFFFFFFFFFFFFFFFFF6703D8CEE3F803
:101D0000FEFFBBEEFF06F3FAFBFAFBFAFBFAFBFA67
:101D1000FBF3803F7FF0873FFFFFFFFFFFFFFFFFE9
:101D2000FFFFFFFFFFFFFFFFFF9F3F7FFFFFFFFF63
:101D3000FFFFFFFFFFFFFFFFFFFF7F3F9FDFCFEFB3
:101D4000EFCF1FFFFFFFFFFF7F7F7F7F7FFF7FBB07
:101D5000EEFF00FFFFFFFFFFFFFFFFFFFFFFFFFFA3
:101D6000FFFEFEFEFEFEFEFC013F7F7FFFFFFFFF4A
:101D7000FFFFFFFF01FF7F1F407339BDBCDED8E3CB
:101D80006F4F5F1F3F07F1FCFFFFFFFFFF3F8FC05B
:101D90007379FDFCFEFF3F8FE7703C9EBBEEFF00BA
:101DA000FFFFFFFFFFFFFFFFFFFFFFFFFF7F3FBFC3
:101DB000BFBFBFBF9FC001F2820061093BF3F7F7CD
:101DC000F7F0FDFCFEFEFFF3F9786040404C4C203C
:101DD000BE007FFFFFFFFFFFFFFF00587C3EBFCF2D
:101DE00007C3F0FAB9ECBEEFBBBBEEBFF0A7EFAF95
:101DF000EFAFEFAFEFAFEFAFE7B0FEBBEFBBEEBBC8
:101E0000EEBBEFFEC01D7DFDFDFDF7971F1F1F1FE1
:101E10001F1F1F5F5F0FCFFFFFFFFFFF7F7F3F8011
:101E2000DFDFCFEFEFE7F7F7F0FAF9F0F6F7E7CB00
:101E30001EFBEEBBEEBBBBEEBBEEBBEEBBEEBBEEEA
:101E4000BBEE7B6E3BAEBBAEBBAE3B6E7BEEBBEE8A
:101E5000BBEFBBEEBCF9B3E7EFCEDCD898B0B0B0C7
:101E600018CCE6F3FBF9FDFCFEFEFFFFFFFFFFFFD2
:101E7000FFFFFFFFFFFFFFFFFFFFFFFFFFE0CC992A
:101E800073C61FBBEEBBEEBBEEBBFE0FE3F9FCFE61
:101E9000CFE7F7F7E7CF1FFFFFFEF8E30EFBEEBB40
:101EA000EEBBEEBBEEBBEEBBFE83397D7D1CC9E312
:101EB000E7F7F7F7F3FBFBF9FDFDFCFEFEFEFFFF86
:101EC000FFFFFFFFFFFFFFFFFFFFFF7F1FC0FF00C0
:101ED000BBEEFB1ECBEEEBEFEEE8E3E7E7EFEFEF59
:101EE000EFEFE3E8EFEFEFEFE3E8EFEEEBEEEBEE33
:101EF000EBEEE7E3E9EDECEEEFEFE0E7EFEFCF1F1E
:101F0000DFDFDFCFEFEFEFE7F7F7F7FFFFFFFFFFD1
:101F1000FFFFFFFFFFFFFFFF600FFF3F80BBEEBF34
:101F2000F0A7EFAFEFAFEFAFEFAFEFEF0FEFEFEFE8
:101F3000EF0FEFAFEFAFEFAFEF2F0FEFEFEFEFEFF1
:101F4000EFEFEFEFEFEFEFEFEFEFCF87B03F3FBFF8
:101F5000BFBFBFBFBFBFBFBFFFFFFFFFFFFFFFFF91
:101F6000FFFF7F3381ECE7F1FCFF0000000102037B
:101F70000303030308081C1E1E1E1E1E0E00183C31
:101F80003C3C3C3C1C00000000181C1C0C000000E9
:101F90000000181C0C0000000000001818000018B9
:101FA0001C1C1C1C0C0000000000000000010203AF
:101FB00003030303030304030202051F40000000A0
:101FC0000000000000000000000000000000000011
:101FD0000000000000000000C080E0C8F8ECFCE455
:101FE000FCF6FEF2FEFAFEFAFEFAFEFAFEFAFEFA3F
:101FF000FEFAFEFAFEFAFEF2FEF6FE000000000017
:1020000000000000000000000000000000000000D0
:1020100000000000FFFEFFFFFFFFFFFFFFFFFFFFCD
:10202000FFE3FFF9FFFDFFFDFFFDFFFDFFF9FFFBF4
:10203000FFF3FF07FFFFFFFFFF00000000000000AD
:102040000000000000000000000000000000000090
:102050000000010007030F071F0F1F8FBFDFFF5F87
:10206000FF1FFF9FFFDFFFDFFFCFFFE7FFF3FFF85B
:10207000FF7EFF7FFF7FFF000000000000000000E8
:102080000000000000000000000000000000000050
:10209000E0C0F0E0F8F0F8F2FAE3FFC8FF9EFF3F7F
:1020A000FF7FFF1FFFC7FF737F191F0C0F0607027B
:1020B0000303030101000000000000000000000015
:1020C0000000000000E0E038F880FCD8FFDEFFCE22
:1020D000FFCEFFDEFFDCFFD9FFF3FFFFFFFEFFF8BF
:1020E000FFE3FF0FFFF8F800000000000000000011
:1020F000000000000000000000000000000000FFE1
:10210000FF01FF3DFFBCFF9DFF9DFF1DFF3DFFFF4A
:10211000FFFFFFFFFFFFFFFFFFFFFFFFFFFFFFFFCF
:10212000FFF0FF07FFF8F8000000000000000000CB
:1021300000000000000000000000C087FFF1FFFC6D
:10214000FFFFFF3FFF8FFFE1FF00FF3EFF7FFFFF2D
:10215000FFFFFFFFFFFFFFFFFFFFFFFFFF7FFF3FCF
:10216000FF80FFE7FF0CFCF8F80000000000000013
:10217000C080F0E0FCF8FFFEFFFFFF7FFF0FFFE1F4
:10218000FFFCFFFFFF70FF86FFEFFFCEFFDEFFDEED
:10219000FFDEFFDEFFDEFFDEFFDEFF1EFFDFFF4FA5
:1021A0007F677F303F1F1F000000000000646464F1
:1021B00064646464656463626161616161616161F9
:1021C00062636404040404040404040303020101BC
:1021D000010101010001020342380000000000007B
:1021E0000000000000008080C0C040C060E020E02F
:1021F000B0F090F0D8F848F86CFC24FCB4FCB4FCC7
:10220000F4FCF6FEF2FEFAFEFAFEFAFEFBFFF9FF20
:10221000FDFFFDFFFDFFFDFFFDFFFDFFFDFFFDFFDE
:10222000FDFFFDFFFDFFFDFFFDFFFDFFFDFFFDFFCE
:10223000FDFFFDFFFDFFF9FFFBFFFAFEFAFEF2FED8
:10224000F6FEF4FCE4FCECFCC8F8D8F890F030F0B2
:1022500060E0C0C0808000000000000000000000BE
:10226000E0E038F88CFCE6FEF3FFF9FFFCFF7EFFB0
:102270001FFFC7FFF3FFF9FFFCFFFEFFFFFFFFFF9C
:10228000FFFFFFFFFFFFFFFFFFFFFFFFFFFFFFFF5E
:10229000FFFFFFFFFFFFFFFFFFFFFFFFFFFFFFFF4E
:1022A000FFFFFFFFFFFFFFFFFFFFFFFFFFFFFFFF3E
:1022B000FFFFFFFFFFFF3FFF1FFFCFFFE7FFE7FF2E
:1022C000F3FFF9FFF9FFFBFFFBFFF3FFE7FFCFFF92
:1022D0001FFF7FFFFEFFF8FFE3FF8EFE38F8E0E010
:1022E0000000FFFF01FFFCFFFFFF1FFFDFFFDFFF1D
:1022F00083FFB8FF3FFF7FFF7FFFFFFFFFFFFFFF71
:10230000FFFFFFFFFFFFFFFFFFFF7FFF0FFFE3FF69
:10231000F9FFFCFFFEFFFEFFFFFFFFFFFFFFFFFFD8
:10232000FFFFFFFF3FFFFFFFFFFFFFFFFFFFFFFF7D
:10233000FFFFFFFFFFFFFFFFFFFFFEFFFFFFFFFFAE
:10234000CFFF8FFF2FFFEFFFEFFFEFFFCFFFDFFF8D
:10235000DFFF1FFFBFFF3CFF71FF07FFFFFFFFFF16
:10236000FCFF01FFFFFF0F0FF8FF83FF3FFFF8FFA8
:10237000E3FFCFFF9CFFBDFF39FF73FFE6FFC4FF04
:102380008DFF19FF3BFF73FFE7FF8FFF3FFF60FFEC
:102390000FFFE7FF73FF73FFF1FFF1FFF5FFE4FFAE
:1023A000ECFFECFFCCFFDCFFE0FF8FFF3FFF7FFF88
:1023B000F1FF07FF7FFFFFFFFFFFFFFFFFFFFFFFB3
:1023C000FFFFFFFFFFFF7FFF1EFFC0FFFFFFFFFFBD
:1023D0007FFF3FFF8FFFE0FFFFFFFFFF7FFF3FFF1C
:1023E0009FFFCFFF617F3C3F070700000000030312
:1023F0000E0F181F333F677FCFFF1FFFFFFFFCFF4C
:1024000081FF33FFFBFFFBFF13FF47FF7FFF3FFF12
:10241000FFFFFFFFFFFFFFFFFEFFDCFFD8FFF8FF1E
:10242000B1FFB3FFF3FFF3FFF3FFF3FFFFFFFFFF86
:10243000FFFFFEFFFEFFFEFFE0FFEFFFEFFF87FF66
:1024400017FF33FF3BFF99FFF8FF1CFF45FF71FFAC
:102450003CFF9EFFC6FF737F191F0D0F0407060781
:10246000020303030101000000000000000000005F
:1024700000000000000000000000000003030E0F39
:10248000181F131F373F667F4C7FDDFF9DFF3DFF09
:102490007DFF7CFF000F071F0F3F1F3F3F7F3FFF68
:1024A0007FFFFFFFFFFFFFFFFFFFFFFFFFFFFFFFBC
:1024B000FFFFFFFFFFFFFFFFFDFFFDFFFFFFFFFF30
:1024C000FFFFFFFFFFFF7BFF3BFF8FFFE1FF3C3F75
:1024D00007070101010101010000000000000000E8
:1024E00000000000000000000000000000000000EC
:1024F00000000000000000000000000000000000DC
:1025000000000000000000000000000000000000CB
:1025100001010000000100010000000000000000B7
:102520000000000000010001000301030103010796
:10253000030703070307030703070307030703074B
:102540000107050705070407060702030303010146
:10255000000000000000000000000000000000007B
:10256000000000000000000000000000000000006B
:102570000000000000003232323232323232333365
:102580003434343434343433333232040404040401
:102590000404040301000000000000000102030421
:1025A00040200000000000000000000000000000CB
:1025B000000000000000000000000000000000001B
:1025C0000000F0F060E020E0BFFFBFFF06FEFCFC73
:1025D000FCFCFCFCFCFCFCFCFCFCFCFCFCFCFCFC3B
:1025E000FCFCFCFCFCFCFCFC7CFC00808080000013
:1025F00000000000000000000000000000000000DB
:1026000000000000000000000000000000000000CA
:1026100000000000000000000000000000000000BA
:102620000000B0F090F0D0F0D8F8C8F8E8F8ECFC72
:10263000E4FCF4FCF4FCF6FEF2FEFAFEFAFEFAFE0E
:10264000FAFEFBFFE0FFC7FF9FFF3FFF7EFFF8FFA3
:10265000F3FFE7FFEFFFCFFFDFFFDFFFDFFFDFFF6E
:10266000CFFFEFFFE7FFF3FF78FF7EFF3CFF81FF27
:10267000DFFFD0F0D0F0D0F090F0B0F0A0E020E09C
:1026800060E040C040C0C0C080808080808000008A
:10269000000000000000000000000000000000003A
:1026A0000000FFFFFFFFFFFFFFFFFFFFFFFFFFFF38
:1026B000FFFFFFFFFFFFFFFFFFFFFFFFFFFFF7FF32
:1026C000F7FFE7FFCFFF9FFF3FFF7FFFFEFFFEFF0C
:1026D000FEFFFCFFFDFFFDFFFDFFFDFFFDFFFDFF1A
:1026E000FDFFFCFFFEFFFEFFFEFFFFFFFFFFFFFF02
:1026F000FFFFFFFFFFFFFFFFFFFFBFFF3FFF3FFFAA
:102700007FFF7FFFFEFFFEFFFEFFFCFFFDFFF9FFE7
:102710003BFF92FEC6FEDCFCD0F090F030F060E0B3
:10272000C0C00707070707070707070707070707C7
:102730000707070707070707070707070707070729
:102740000707070707070707070704070107070722
:102750000707070707070707070707070707070709
:1027600007070707070707070707070707070707F9
:1027700007070707070707070707070707070707E9
:1027800007070607060704070507070707070707E0
:1027900004070707070707070707070707070203D5
:1027A0000003262525252525252628292A2A2A2A03
:1027B0002A2A2A2A2928274D40BBEEBBEEBBEEBBB6
:1027C000EEBBEEBBEEBBEEBBFE1FC6F3F9FCFEFF9D
:1027D000FFFFFFFFFFFFFFFFFFFFFFFFFFFFFFFF09
:1027E000FFFFFFFFFFFFFFFFFFFFFFFFFFFFFFFFF9
:1027F000FFFFFFFFFFFFFFFFFFFFFFFFFFFFFEF8F1
:10280000C31FFEBBEEBBBBEEBBEEBBEEBBEEBBEE37
:10281000BBEEBBFE0FE0FEFFFFFFFFFFFFFFFFFF72
:10282000FFFFFFFFFFFFFFFFFFFFFFFFFFFFEFE7E0
:10283000F7F3FBFBF9FDFDFCFEFEFCF9E38F3FFF28
:10284000FFFFFFFFFFFFFFFFFFFFFF3FBF9FC0FF37
:10285000BBEEBBBBEEBBEEBBEEFB6E7B6E7B6E7B63
:102860007F007F7F7FFFFFFFFFFFFFFFFFFFFFFF77
:10287000FFFF1F7FFFFFFF3FFFFFFFFFFFFFFDFD8C
:10288000FDF9F1C51DF9FBF3F7076FECE1FFFFFF61
:10289000FFE7CF1FFFFFFF7F3E98C9399FC3FEBBF5
:1028A000FB3E87F3F9FCFEFEFF7F3F3F9F9F9F9F0C
:1028B0001F3EFEFCF9E30F7FFFFFFF7F1F87B3B9C9
:1028C000B8B9B3B720071F7FFFFFFFFFFFFFFF7FF0
:1028D0001F0037B79398D8DCDCD1873FFFFF7F1FFD
:1028E000000985F0F83C8FE10CFFBBEEBBFF803F99
:1028F000FFFFFFFFFFE1803E7FFFFFFFFFFF7C7FC9
:102900003F9FC7307C31E7EFC03C60CC9CBCB0A09F
:10291000A5ADE3FBFEFCF9FBF3F3F9FCFEFAA3A182
:10292000A1A4B4B89CCCE03C188BA03677F6E7C3E2
:1029300019DCCEE7F1BCEFBBEEBBBBEFBEF8B3E7F3
:10294000EFCFDF9F3F7EFEFCFCFCF8FAF3E78F3F02
:102950003BBF9EDCDDCDEBE0E1E3460ECFDE1F3F6B
:102960003F7F6F6DEDEDEFEF6F6777333B9EDFCE0F
:1029700006C79BBCBE9ECC617476F7F3B9ECBFEE84
:10298000BBEEBBEEBBEEBBBBEEBBEEBBEEBBEEBB32
:10299000EFFB6E3C9107FFFFFFFFFFFF00FFFFFF14
:1029A0007F1FCFFFFFFFFFF0C79F3F7C78F3F7F754
:1029B000F6F6F6F6F6F2FB793C9ECFE7F1FCFF9FC8
:1029C0003F3F7F7FFFFFFEFEFEFEFCFDFD797B7338
:1029D00066CF1EFBBBEEBBEEBBEEBBEEBFF1E4CEA3
:1029E0009F3F00FFFFFFFFFFFF00FFFF03001F3FB0
:1029F0007FFFFFFFFFFFFFFFFFFEFEFEFEFEFEFE6E
:102A0000FEFEFEFEFEFFFFFFFFFFFFFF7F3C00001C
:102A1000000C1C3973F7F3F9FC1ECEE7F3FAF81C2F
:102A20000DBBEEBBEEBBEEBBEEBBEEBBEEBBEEFBFF
:102A30000FE1FCFFFFFFFFFFFFFFFFFFFFFFFFFFB7
:102A4000FFFFFFFFFFFFFFFFFFFF7F7F3FBFBF9F36
:102A5000DFDFCFEFEFCF9F3FFFFFFFFFFFFFFFFF66
:102A6000FFFFFFFFFFFFFFFFFC01FFBBEEBBBBEE65
:102A7000BBEEBBEEBBEEBBEEBBEEBBFF00FEFFFF53
:102A8000FFFFFFFFFFFFFFFFFFFFFFFFFFFFFFFF56
:102A9000FFFFFFFFFFFFFEFEFFDFDFDF9F1F5FDFA8
:102AA0009FBF3F7F7EF8C31FFFFFFFFF7FFFFFFF3A
:102AB000FFFFFFE38B19DCFFBBEEBBBBEEBBEEBB46
:102AC000EEBBEEBBEEBBEEBBFF803FFFFFFFFFFFA9
:102AD000FFFFFFFFFFFFFFFF7F3F91C79F3F7F0388
:102AE0007FFFFFFFFFFFFFFFFFFFFFFC017F7F3F37
:102AF0008FE0E6CE1E7FFFFFFFFEFC019FDFCFE7EA
:102B000073F9FC1DCDE1FFBBBBEE7B0EE7F3F9FDD6
:102B1000FCFEFE7E7E3E3E3E3E3E7CFDF9F3C0075F
:102B20001F7FFF07E104E5E5E5050D49D810B1E792
:102B3000CF9FBF3F3F9FCFE7B11003096D6584E68C
:102B4000E606E083BF8FE7F11C87C3F97C1EC7F060
:102B500006FFBBEEBBBBFF007FFFFFFFFFFFC30015
:102B60007CFEFFFFFFFFFEF8FF7F3F8FE01C78F841
:102B7000E0873EFCF9EBEBFAEAFAFEFFFFFFDFDF4E
:102B8000DFFFFFFFFF7F7A7AEAFAEBEBF9FC3E0FFB
:102B90004147D31B3BFBF3E10CEEE7B3F8BEEFBBC1
:102BA000EEBBBBEFBFFCB1E7CFDF9FBF3F7EFCFDBD
:102BB000F9F9F9F1F4E6CE1F7BEF7B6E7E38A38E38
:102BC0009CB9337727EFCF1F9FBFBD3D7D7D7D7CB7
:102BD0003EBEBD9C1FCFCF0773E1CCDEDFCFE6F05A
:102BE000BAEBBBE9BCEEBBEEBBEEBBEEBBEEBBBBD8
:102BF000EEBBEEBBEEBBEEBBEFBBEEFC79230FFFF3
:102C0000FFFFFFFFFF00FEFEFF7F3FFFFFFFFFC153
:102C10001C7FFFF0E0CFDFDFDFDFDFDFDFCFEFE7BD
:102C2000F3783F9FC7F0FD7DFDFDFDFDFDFDF9FB48
:102C3000FAFBF2F7F6E7EECB9E3B6EFBBBEEBBEE8C
:102C4000BBEEBBEEFFC693397CFEFF00FFFFFFFF2C
:102C5000FFFF00FF0F017CFFFFFFFFFFFFFFFEFCF8
:102C6000FDF9FBFBFBFBFBFBFBFBFBFBF9FCFEFFAE
:102C7000FFFFFFFFFEF00001013373E7CFDFCFE777
:102C8000F37B399DCDE9E37037BBEEBBEEBBEEBB0A
:102C9000EEBBEEBBEEBBFE1FC1FCFFFFFFFFFFFF65
:102CA000FFFFFFFFFFFFFFFFFFFFFFFFFFFFFFFF34
:102CB000FFDFCFEFE7F7F7F3FBFBF9FDFDF9F3C714
:102CC0001F7FFFFFFFFFFFFFFFFFFFFFFFFF7F7F74
:102CD0003F80FFBBEEBBBBEEBBEEBBEEBBEEBBEE85
:102CE000BBEEBBFF00FFFFFFFFFFFFFFFFFFFFFF8C
:102CF000FFFFFFFFFF3FFFFFFFFF7FFFFFFFFFFF24
:102D0000FFFBFBFBF3E38B3BF3F7E7EF0FDFD8C3EE
:102D1000FFFFFFFFCF9F3FFFFFFFFF7C31037B6E75
:102D20007BEEBBBBEEBBEEBBEEBBEEBBEEBBEEBBCE
:102D3000FFF007FFFFFFFFFFFF1FFFFFFFFFFF3F4A
:102D40008FA7B2B8B3A7AF000F3FFFFFFFFFFFFF92
:102D5000FFFFFF3F002FAF8791DCDCD9D38F7FFFD0
:102D6000FFFF3F80F3F371389CFE3F87F3B8EFBB62
:102D70007B0EE7F3F9FDFCFEFE7E7E3E3E3E3E3ED0
:102D80007CFDF9F3C71FCE88234F5F00FC60CC9C0D
:102D9000BCB0A0A5ADE3FAFCF9F3F7E7E7F3F9FC63
:102DA000FAA3A1A1A4B4B89CCCE0FC50F7F1FCFEBE
:102DB000C7E1703E9FC7F13C81FFBBEEBB007FFFC8
:102DC000FFFFFFFFC3007CFEFFFFFFFFFEF8FF7F5A
:102DD0003F8FE0A7EFC79EBE38E38F3E7EFEFEFF2B
:102DE000FEFFFFFFFF7F7D7D7D7F3FBFBF5F1DDD5E
:102DF000FEFFFEFE7E3E8FC7D0913486CEFE7C382D
:102E000083FBE9BCEEBBEEBBEEBBBFFCB1E7CFDFA3
:102E10009FBF3F7EFCFDF9F9F9F1F4E6CE1F7BEE92
:102E20007B6E3BAEBF9CD1C7CFDE9C3D99FB730749
:102E3000E7EFEFCFDFDFDFDFCFEFEFE707F3E38988
:102E40003CF8B3F7B7F3B9ECBEEEBAEEBBEFBBEEAE
:102E5000BBEEBBEEBBEEBBBBEEBBEEBBEEBBEFBB5C
:102E6000EEBCF9630FFFFFFFFFFFFF00FEFEFFFF59
:102E7000FF3F9FFFFFFFFFE08E3F7FF8F0E7EFEFA0
:102E8000EFEFEFEFEFE7F7F3793C9FCFE3F8FE3E8C
:102E90007E7EFEFEFEFEFCFDFDFDF9FBFAF3F6E78D
:102EA000CE9B3EFBBBEEBBEEBBEEBBEEBFE3C99CD5
:102EB0003E00FFFFFFFFFFFF00FFFFFF07003E7F19
:102EC000FFFFFFFFFFFFFFFEFEFCFDFDFDFDFDFD23
:102ED000FDFDFDFDFCFEFFFFFFFFFFFFFF78000093
:102EE00000193973E7EFE7F3F93D9CCEE6F4F138CA
:102EF0001BBBEEBBEEBBEEBBEEBBEEBBEEBBEE7F99
:102F000007F0FEFFFFFFFFFFFFFFFFFFFFFFFFFFD9
:102F1000FFFFFFFFFFFFFFFFFF7F3FBF9FDFDFCF11
:102F2000EFEFE7F7F7E7CF1F7FFFFFFFFFFFFFFFA1
:102F3000FFFFFFFFFFFFFFFFFE00FFBBEEBBBBEE8F
:102F4000BBEEBBEEBBEEBBEEBBEEBBFF00FFFFFF7D
:102F5000FFFFFFFFFFFFFFFFFFFFFFFFFFFFFFFF81
:102F6000FFFFFFFFFFFFFFFFFFEFEFEFCF8F2FEF21
:102F7000CFDF9FBF3F7C610FFFFFFFFF3F7FFFFF62
:102F8000FFFFFFF1C50CEEFFBBEEBBBBEEBBEEBB24
:102F9000EEBBEEBBEEBBEEBBFFC01FFFFFFFFFFFB4
:102FA000FF7FFFFFFFFFFFFF3F9FC8E3CF9FBF01F2
:102FB0003FFFFFFFFFFFFFFFFFFFFFFE00BFBF9FC1
:102FC000C77073670F3FFFFFFFFFFE00CFEFE77390
:102FD00039FC7E0EE6B0FFBB7B0EE7F3F9FDFCFE8D
:102FE000FE7E7E3E3E3E3E3E7CFDF9F3C71F9803CB
:102FF0000F3F7F03F00272F2F28206246C08D8F3CE
:10300000E7CFDF9F9FCFE7F3D808010436B2C2F3C2
:103010007303F0C1DFC7F3F88EC3E17C3E8FE37822
:1030200003FFBBEEBB007FFFFFFFFFFFC3007CFE83
:10303000FFFFFFFFFEF8FF7F3F8FE0CFDF8E3C7C7E
:1030400070C31F7EFCF5F5FDF5FDFFFFFFFFEFEF01
:10305000EFFF7F7F7FBF3DBDF5FDF5F5FC7E1F8750
:10306000A023690D9DFDF97006F7F3B9ECBFEFBB26
:10307000EEBBBFFCB1E7CFDF9FBF3F7EFCFDF9F9A0
:10308000F9F1F4E6CE1F7BEE7B6E3BAFBF9CD1C760
:10309000CEDC993B93F7670FCFDFDE9EBEBEBEBE90
:1030A0009FDFDECE0FE7E78339F0A6EFAFE7B3F897
:1030B000BDEDBDECBEEFBBEEBBEEBBEEBBEEBBBBF6
:1030C000EEBBEEBBEEBBEFBBEEBCF9630FFFFFFF49
:1030D000FFFFFF00FEFEFFFFFF3F9FFFFFFFFFE040
:1030E0008E3F7FF8F0E7EFEFEFEFEFEFEFE7F7F36B
:1030F000793C9FCFE3F8FE3E7E7EFEFEFEFEFCFDA9
:10310000FDFDF9FBFAF3F6E7CE9B3EFBBBEEBBEE13
:10311000BBEEBBEEBFE3C99C3E00FFFFFFFFFFFF1E
:1031200000FFFFFF07003E7FFFFFFFFFFFFFFFFEE7
:10313000FEFCFDFDFDFDFDFDFDFDFDFDFCFEFFFFBB
:10314000FFFFFFFFFF78000000193973E7EFE7F397
:10315000F93D9CCEE6F4F1381B0000000102031794
:103160001B00FEFCFF02FF02FF02FF02FF02FF0244
:10317000FF02FF02FF02FF02FFFCFFE0FEC0F08043
:10318000E080C080C080C080C080C000C0008000DF
:10319000FFFFFF30FF30FF30FF30FF30FF30FF30E8
:1031A000FF30FF30FF30FFFFFFFFFFFFFFFFFF207B
:1031B000FF20FF20FF20FF20FFFFFF00FF00FFFF99
:1031C000FF00FF00FF00FF00FF00FF00FF00FF0007
:1031D000FF00FF00FFFFFF3FFF1F7F0F3F081F089B
:1031E0001F081F081F081F071F000F000301070308
:1031F000070307030703070307030703070307037F
:1032000007030701070003000000000000000000A2
:103210000000000000000000000508001F0E1F0A4B
:103220001F0E1F001F0E1F111F111F111F0E1F1138
:103230001F001F001F001F111F001F001F001F0085
:103240001F001F000102030508000000000000002D
:10325000000000000000000000000000000C161F2D
:10326000160C1C141E141C1C121E121C0C1A1F1AE5
:103270000C0F191F190F0E0F091F1D0F191F190F02
:103280001D1F090F0E1F171C171F171C171F1C1FB0
:10329000171C171F1C1F171C171E1919191E1E1388
:1032A00011191E1E0703071E1E1313131E1B1F17C3
:1032B0001F1B191F1B1F191D1F111F1D1D1313136A
:1032C0001D05081F1F1F1F1F1309000913100600EB
:1032D00006100008030800010606060104000800A5
:1032E000040A10FFFFFFFFFFFFFFFFFFFF030303C1
:1032F000030303030303031F07C3C10000C1C30784
:103300001F0302000000000000020381383C1C0083
:10331000001C3C388103030000000000000303018F
:1033200000C00F0F0F0FC0000102000000000000DE
:103330000000020301383C3C3C3C38010302000021
:103340000000000000000200383800C0C00038381B
:103350000000000000000000000000181000FEFC4B
:10336000FFFEFFFEFFFCFFC0FF80FEC0FEFCFFFE75
:10337000FFFEFFFCFF00FEFCFFFEFFFEFFFEFFCE98
:10338000FFC6FFE6FFFEFFFCFF70FE00F80007032C
:103390001F0F3F1F7F1F7F1F7F1F7F1F7F1F7F1FED
:1033A0007F0F7F037F003F0F7F1F7F1F7F0F7F00F7
:1033B0007F013F01070107000700030000302A24B6
:1033C00022202220202F10007C38FE7CFF7EFFFE72
:1033D000FFFEFFCEFFDEFFDEFF9EFF0CFF60FFFE65
:1033E000FFFEFFCEFFC6FFE6FFFEFFFEFFFCFF7005
:1033F000FF06FFFEFFFEFFDEFFDEFF1EFF1EFFCC0F
:10340000FFE0FFFEFFFEFFDEFFDEFF1EFF1EFF0CE4
:10341000FFE0FFFEFFFEFF3EFF1EFF1EFFFCFFF072
:10342000FEE0F800F0001E0C3F1E7F1E7F1E7F1C7A
:103430007F1F7F1F7F1F7F1F7F0F7F003F1F7F1F0B
:103440007F1F7F017F013F0107011F0C3F1E7F1F70
:103450007F1F7F1F7F1E7F1E7F1E7F1E7F0C7F01B1
:103460003F1F7F1F7F1E7F1E7F1E7F1E7F0C7F01E1
:103470003F1F7F1F7F1E7F1E7F1F7F0F7F033F0128
:103480000F000700060C0E100E10102F1000F0E0B9
:10349000FCF8FEFCFFFEFF1EFF0EFF1EFF1EFF1EC0
:1034A000FF0CFFE0FFFEFFFEFFFCFFC0FEC0F8F0D8
:1034B000FEFCFFFEFFFEFF1CFFC0FEF0FEFCFEFC5C
:1034C000FFCEFFC6FFE6FFFCFFF8FE00FECCFFDEEE
:1034D000FFDEFF0CFFE0FFFEFFFEFFF8FFF0FEE067
:1034E000FFFEFFFEFFFEFF3CFF00FE0003010F0793
:1034F0001F0F3F1F7F1E7F1C7F1E7F1E7F1E7F0CA6
:103500007F013F1F7F1F7F077F033F031F0F3F1F69
:103510007F1F7F0F7F003F0F7F1F7F1F7F077F036E
:103520003F033F1F7F1F7F0F7F003F1F7F1F7F03D2
:103530003F183F1F7F0F7F013F001F031F0F3F1FDB
:103540007F1F7F037F000F000020202020222010FB
:103550000013051F0507001F051F001F101F001780
:10356000151D001F15152A18000000007CFEFEFC2A
:10357000E0C0E0FCFEFEFC00F0FCFEFECEC6E6FE77
:10358000FEFCF000FCFEFEFC000000FCFEFEFC0069
:103590000000E0F0F0F0E00C1D1D1F8FE7F7F7735F
:1035A0003030F3F7E78F1FCFE7F7F7F773F0F3F754
:1035B000670FE6F4F6F7F7F7F3F0F0607FFFFFFF31
:1035C000FFF0F0F0F0670FFFFFFEFEFFFFFF7F1F31
:1035D0000061F3F3F7E7FEFEFEFC78007FFFFFFFDC
:1035E000FFF6F6F0F060D5F08D14A1C881CFD9F1C7
:1035F000AF20005810F0F89C8E8783878E9CF8F0DF
:103600000000FEFF0303030303070EFCF80000FEA7
:10361000FF0303030303070EFCF80000FFFF000095
:103620000000000000FFFF0000FEFF838383838310
:10363000C7EE7C380000F8FC0E07030303070EFCFE
:10364000F800003F7FE0C08080C0E07F3FFFFF01C7
:10365000010101010101FFFF0000FFFF0C0C0C0C38
:103660001C3E77E3C100007FFFC0C0C0C0C0E07057
:103670003F1F00001F3F70E0C0C0C0E0703F1F0050
:10368000007FFFC1C1C1C1C1E3773E1C00001F3FE5
:1036900070E0C0C0C0E0703F1F000000000001FFEC
:1036A000FF01000000482677263F263F270F267D92
:1036B0002D192CF62A3128080B00020202000009FD
:1036C000040000010202000005240010010524018D
:1036D00001010424020605240600010705810310E8
:1036E000004009040100020A000000070502024030
:1036F00000000705830240000004030904120100D2
:1037000002EF020140412336800001010203014122
:10371000726475696E6F204C4C4300417264756928
:103720006E6F204C656F6E6172646F0052311124B0
:103730001FBECFEFDAE0DEBFCDBF11E0A0E0B1E009
:10374000E8E5F9E602C005900D92AC32B107D9F771
:1037500027E0ACE2B1E001C01D92A034B207E1F76E
:103760001BE1C7E9DBE104C02197FE010E94A434FC
:10377000C639D107C9F70E9477310C94AA340C944A
:1037800000008091AB0208958F929F92AF92BF92FA
:10379000CF92DF92EF92FF920F931F93CF936C0122
:1037A0004115510509F4E8C0FA011491319694913C
:1037B0005A01F2E0AF0EB11CE12EF12C222301F1EF
:1037C00041E050E0892F877011F450E040E0E92F8C
:1037D000E695E695E695E40FF52FF11DEE9DA00127
:1037E000EF9D500DFE9D500D1124033011F4440F38
:1037F000551F249FF001259FF00D1124AE0EBF1E12
:10380000D601AE0DBF1D1A161B060CF0B5C080E820
:10381000C816D1040CF0B0C09B01290F311D12163F
:1038200013060CF0A9C0603471050CF0A5C0A114FA
:10383000B10409F4A1C0C62FC770AB0177FF02C065
:10384000495F5F4F23E0559547952A95E1F7242F6F
:1038500077FF04C0CC2311F02FEF240FEE27FF27B2
:10386000EC19FD09D7FC02C0F0E0E0E030E83C19BB
:10387000A038B1050CF4312F3E1B622F022E000C34
:10388000770B462F40952F3F0CF040E051E0892FF9
:10389000877009F450E0969596959695590F650FA7
:1038A000711D6930710514F058E0521B541B240F30
:1038B00060E82603D0011124AC0DBD1DAE0FBF1F63
:1038C000149FE00DF11D1124AE0EBF1E8C2F0C2E87
:1038D000000C990B0A3F09F45BC00B3F09F486C04A
:1038E000033009F049C0832F90E0EA0DFB1DA05280
:1038F000BD4F00E810E0081B190BB701681B790BDE
:10390000660F771F81E090E07C010C2E01C0EE0C69
:103910000A94EAF7832E9C2ECF93DF93ED01EF9666
:10392000EF962296A590C590992059F0AE9C500133
:10393000CE9C600127302CF4F880D094FD20FB2829
:10394000F99222233AF0FC90C094FC20FA28FD92D0
:103950000C94AB1C11963A9529F75A9551F0382DD5
:1039600023951124E60FF11DA00FB11DC00FD11D2D
:10397000D9CFDF91CF911124CF911F910F91FF905B
:10398000EF90DF90CF90BF90AF909F908F90089571
:10399000D52ED20ED21681F3AD0140525D4F70E0AC
:1039A00060E0631708F054C0F501E60FF71FE491DB
:1039B000F0E04F01082E02C0880C991C0A94E2F72F
:1039C00027FD04C0FA01108118291083CC2349F087
:1039D00027303CF48A0100581F4FF801C080C928E5
:1039E000C0826F5F7F4F4F5F5F4FDBCFD52ED20E10
:1039F000D21609F4C1CFAD0140525D4F70E060E0D6
:103A0000631760F5F501E60FF71FE491F0E04F0151
:103A1000082E02C0880C991C0A94E2F727FD06C004
:103A2000FA011081082D009510231083CC2359F042
:103A300027304CF48A0100581F4FC92CC094F8015C
:103A40009080C920C0826F5F7F4F4F5F5F4FD8CF9C
:103A50002F5FAE0CBF1CA058BF4F9CCF2F5FAE0C8A
:103A6000BF1CA058BF4FC4CFE0EEF2E0A0E0B8E02A
:103A700000800EBC8111012C1197A0FDFDCF019299
:103A8000B9F70DB4089590E121E061FD24E060FDF7
:103A9000220F62FD2295687F969FD0011124A80F06
:103AA000A052BD4F8C91822B8C930895AF92BF9200
:103AB000CF92DF92EF92FF920F931F93CF93DF93FA
:103AC0005B01EC016C01C40ED11C8B01020F111DB6
:103AD000CC15DD05A4F47501C8010134110514F0FD
:103AE00080E490E0E816F90644F4B701CE010E94A4
:103AF000431D8FEFE81AF80AEFCF2196E9CFDF9147
:103B0000CF911F910F91FF90EF90DF90CF90BF90DA
:103B1000AF900895CF93DF93E0EEF2E094E39150FD
:103B200059F4E0E6F6E094E3915061F08191DF0111
:103B3000119780688C93F8CF8191DF011197816094
:103B40008C93EDCFD0E0C0E0BE0190E080E00E9419
:103B5000431D2196C034D105B9F7D0E0C0E0BE01C5
:103B600082E390E00E94431D2196C034D105B9F74D
:103B7000DF91CF910895FC018091DF02882311F13C
:103B80003FB7F89482E08093E9002091F200822F01
:103B900090E01816190614F481E090E0882339F0BB
:103BA000289844E64093DE024091F10040832223AE
:103BB00039F02091F200211103C02BE62093E80098
:103BC0003FBF08958FEF9FEF08952FB7F89483E0DC
:103BD0008093E9009091E800892F807295FF04C0DE
:103BE0009091F20080E4891B2FBF08958091D60246
:103BF00081110DC082E08093D20284E08093D302D1
:103C00001092D5021092D40281E08093D60282ED08
:103C100092E00895CF93DF931F92CDB7DEB769830B
:103C2000DC01ED91FC910280F381E02D41E050E058
:103C3000BE016F5F7F4F09950F90DF91CF9108957F
:103C400083E08093E9008091F200882319F08AE3F1
:103C50008093E80008950E94E51D90E00895CF93B9
:103C6000DF931F92CDB7DEB7FC018485958597FD64
:103C700008C02FEF3FEF358724870F90DF91CF915A
:103C80000895CE0101960E94BB1D019719F4898108
:103C900090E0F3CF8FEF9FEFF0CF0F931F93CF9371
:103CA000DF931F92CDB7DEB78C01FC01848595852B
:103CB00097FF0BC0CE0101960E94BB1D019771F4C6
:103CC000898190E0F80195878487F801848595853E
:103CD0000F90DF91CF911F910F9108958FEF9FEF7C
:103CE000F1CFFC018485958597FD0BC09FB7F894B3
:103CF00082E08093E9008091F2009FBF90E00196FE
:103D000008959FB7F89482E08093E9008091F200D3
:103D10009FBF90E008954091CC025091CD02209138
:103D2000CA023091CB0242175307B4F49091E800D5
:103D30009570E1F39091E80092FD19C08093F10035
:103D40008091CC029091CD0201968F739927892B97
:103D500019F48EEF8093E8008091CC029091CD020F
:103D600001969093CD028093CC0281E0089580E08B
:103D70000895DF92EF92FF920F931F93CF93DF93FB
:103D8000D82E8A01EB017B01E40EF51ECE15DF056E
:103D900059F0D7FE12C0FE0184910E948B1E21961D
:103DA0008111F4CF0FEF1FEFC801DF91CF911F9169
:103DB0000F91FF90EF90DF9008958881EECF0F93E1
:103DC0001F93CF93DF931F92CDB7DEB782E0898335
:103DD00042E450E067EB76E380E80E94B91E0E945F
:103DE000F61DDC0112960D911C910115110589F04B
:103DF000D801ED91FC910280F381E02DBE016F5F4F
:103E00007F4FC801099597FD04C0F8010085118511
:103E1000ECCF89810F90DF91CF911F910F91089581
:103E2000615030F02091F100FC0120830196F8CF21
:103E3000289884E68093DE0208953FB7F894809135
:103E4000C6029091C702A091C802B091C90226B5DE
:103E5000A89B05C02F3F19F00196A11DB11D3FBFC2
:103E6000BA2FA92F982F8827BC01CD01620F711D91
:103E7000811D911D42E0660F771F881F991F4A958B
:103E8000D1F708958F929F92AF92BF92CF92DF9217
:103E9000EF92FF926B017C010E941D1F4B015C01A0
:103EA000C114D104E104F104B9F00E941D1F681986
:103EB00079098A099B09683E73408105910580F361
:103EC00021E0C21AD108E108F10888EE880E83E0EB
:103ED000981EA11CB11CE4CFFF90EF90DF90CF9013
:103EE000BF90AF909F908F9008958F929F92AF92C6
:103EF000BF92CF92DF92EF92FF920F931F93CF93D7
:103F0000DF936C017B018A0180910D01882309F404
:103F10005CC08091DF02882309F457C08091D102F0
:103F200080FF05C08091E00082608093E000E8019E
:103F3000B12C8AEFA82E93E0892E2AE3922E2097A7
:103F400011F4BB20D9F10E94E51D81110AC0AA9489
:103F5000AA20D9F161E070E080E090E00E94421F69
:103F6000EECF8C171D0611F00CF08C2F9FB7F89434
:103F70008092E9002091E80025FD02C09FBFDFCFBD
:103F8000282F30E0C21BD30BF701815020F0419164
:103F90004093F100FACFE20EF31EBB2021F0909285
:103FA000E800B12CEBCF8091E80085FDE7CF90923F
:103FB000E800BB24B394209709F3F3CF5D9884E61F
:103FC0008093D002101611063CF081E090E0F601DB
:103FD0009383828310E000E0C801DF91CF911F91AD
:103FE0000F91FF90EF90DF90CF90BF90AF909F9098
:103FF0008F9008952091B302E091B102F091B20246
:10400000CF0102969093B2028093B102222319F05D
:10401000859194910895808191810895CF92DF9246
:10402000EF92FF92CF93DF930E94FA1F811520E851
:10403000920791F4809171008D7F809371001092AE
:104040009100469847981092B002DF91CF91FF906F
:10405000EF90DF90CF90089521E02093B00281305F
:1040600020E8920751F48091AE029091AF029093B4
:10407000B2028093B1020E94FA1F97FD05C0209101
:10408000AD02222309F454C02091AC02211150C08A
:1040900021E02093B402EC01DF77209709F04BC0B8
:1040A00081E08093B50246983FE9C32E3FE0D32ECE
:1040B000E12CF12CCAEFD0E0E0913E07F0913F07F0
:1040C0000995811103C081E08093B5028091B4020B
:1040D000882329F08091B502882309F43FC04798CE
:1040E0000E94FA1F0097F1F19C01DE010E947534D5
:1040F000DC01CB0129E0B595A795979587952A9581
:10410000D1F7109290002AE020939100D09299006C
:10411000C09298008093B6029093B702A093B80221
:10412000B093B902809171008260809371008DCF4D
:104130001092B402B0CF9E0150E040E060E472E41F
:104140008FE090E00E94213469017A0181E0C81A71
:10415000D108E108F1081092B502AECF4699BFCF61
:10416000479ABECF8FEF9FEFDC01CBCF9C01E1E7F9
:10417000F0E090819D7F90831092B302E0E3F7E03E
:10418000F093B202E093B102F093AF02E093AE027B
:10419000318320837383628380E090E895838483F6
:1041A0000C940E200F9303E00E94C41B0F910895FE
:1041B0000F930AEF0E94C41B0F9108950F930BEF0A
:1041C0000E94C41B0F910895BC0190E080E00C9404
:1041D000421F8FB18095807F669B88601C9B8460A6
:1041E00008951092AB023E983F9808953E9A3F9AE8
:1041F00081E08093AB0208959091BE02982329F448
:104200009091BF02982381E009F480E008950F9314
:104210001F93CF93DF93D0E0C0E003E310E020E0F2
:104220004DE052E1BE01C8010E94D8200E5F1F4F31
:1042300001381105A1F72896C034D10571F7DF9137
:10424000CF911F910F910895CF93DF93C0914001BB
:10425000D0E0FE01E65FFD4E649170E020E048EDA5
:104260005FE08AE390E00E94D220FE01EB52F04F23
:10427000649170E071956195710920E045E35DE01E
:104280008DE390E00E94D220FE01EE5CF24F64913B
:10429000FE01E15DF24F849170E020E049EE5AE0CA
:1042A00090E0DF91CF910C94D220DF92EF92FF92B9
:1042B0000F931F93CF93DF93AB01440F551F4659C4
:1042C0005E4FB0E0A0E0EB0122968C010E5F1F4F25
:1042D000E4E1DE2EC617D70784F1FD01EE0FFF1FC4
:1042E000E75BFE4F9C017D01E81AF90AD701A20F96
:1042F000B31F02171307E4F02830310518F46A30B1
:1043000071051CF0A081A11121C0A0813296AA23C1
:1043100061F0D29ED001D39EB00D1124A40FB51F21
:104320000D90BC91A02DAB2B89F42F5F3F4FDECFBA
:104330006F5F7F4F4E5F5F4FCDCF81E0DF91CF91B9
:104340001F910F91FF90EF90DF90089580E0F6CFDE
:104350008730910514F5AC014F5F5F4F2AE0249F31
:10436000D001259FB00D1124A60FB71FAA0FBB1FA8
:10437000A659BE4F289FF001299FF00D1124E60F8A
:10438000F71FEE0FFF1FE659FE4F81E04D915C9144
:10439000208131814217530709F080E0089562308F
:1043A0007105E4F04AE0489FF001499FF00D1124A7
:1043B000DB011197AE0FBF1FAA0FBB1FA659BE4F3F
:1043C000E60FF71FEE0FFF1FE659FE4F81E04D91FC
:1043D0005C91208131814217530709F080E00895F4
:1043E0002F923F924F925F926F927F928F929F9205
:1043F000AF92BF92CF92DF92EF92FF920F931F93F3
:10440000CF93DF9300D000D000D01F92CDB7DEB79E
:104410003BE0632E32E0732E4AE6442E41E0542EF8
:10442000312C212C81E090E09A838983D12CC12CFE
:1044300001E010E07F826E8229E0E22EF12CF6018D
:104440003296FD83EC83F701EE0FFF1FE40DF51D9F
:1044500080819181892B09F485C0B701C6010E9432
:10446000A821882309F47EC0B70189819A810E941E
:10447000A8218B83882309F475C0B7018C819D81A5
:104480000E94A821882379F0EE81FF81138B028B93
:1044900017A306A313AF02AFE25BFF4F11830083A4
:1044A000F1E0F0934101912C812CAE80BF8042E17C
:1044B000A40EB11CB701C4018C0D9D1D0E94CF211B
:1044C0008823B1F0EE81FF81138B028B17A306A323
:1044D00013AF02AF44E1489DF001499DF00D112456
:1044E0003297EA0DFB1D1183008381E08093410127
:1044F0009FEF891A990AE3E08E169104D9F6A091EC
:1045000041015701A20CB31CAA0CBB1CC501865962
:104510009E4F5C0190E080E02E813F812E5E3F4FF8
:10452000E9E0EE16F104C1F0F501E80FF91F408152
:104530005181628173814617570771F4EE81FF81C3
:10454000138B028B17A306A313AF02AFF901E80F79
:10455000F91F13830283AB8144968C33910501F7D5
:10456000A0934101F1E0EF1AF1088E819F8102973B
:104570009F838E83E114F10409F065CF9FEFC91A80
:10458000D90AE4E16E0E711CF4E14F0E511C8981D1
:104590009A8101969A8389839AE0290E311CE8E07A
:1045A000CE16D10409F046CF27960FB6F894DEBF99
:1045B0000FBECDBFDF91CF911F910F91FF90EF9074
:1045C000DF90CF90BF90AF909F908F907F906F9033
:1045D0005F904F903F902F9008952F923F924F926F
:1045E0005F926F927F928F929F92AF92BF92CF9283
:1045F000DF92EF92FF920F931F93CF93DF9300D040
:1046000000D01F92CDB7DEB742E1642E712C10E0CE
:1046100000E0630139E0E32EF12C960126593E4F6C
:104620002901D9018D919C91F70131971F01892BA7
:1046300009F49AC0B701C8010E94CF21882309F468
:1046400093C0B101C8010E94CF218983882309F456
:104650008BC0B70162507109C8010E94CF21882325
:10466000A9F0F601E55FFD4F21E030E031832083C2
:10467000DF01129711963C932E9312972D933C9342
:1046800036973183208331E030934101B12CA12C46
:10469000C601855F9D4F4C01DC011297BB83AA8345
:1046A000FC013497FD83EC83B7016A197B09C801CB
:1046B0000E94A8218823D1F0E1E0F0E0D401ED933D
:1046C000FC93AA81BB81ED93FC93AC81BD81ED93FA
:1046D000FC93C501880F991FF401E81BF90B21E039
:1046E00030E0358B248B31E0309341018FEFA81AF5
:1046F000B80A93E0A916B104B9F6B090410190E070
:1047000080E0F601E55FFD4F7F01A2E0EA1AF108C3
:10471000BF016450710901151105F9F0D201A80F0C
:10472000B91F9D01245131094D915C91D9012D9101
:104730003C914217530789F421E030E03183208314
:10474000D7012D933C93DB012D933C93DC015497CF
:10475000AE0FBF1F2D933C93B98002978A3FBFEFE6
:104760009B07C9F6B09241017101E2E0CE1AD1086F
:10477000232809F052CF0F5F1F4FF4E16F0E711C19
:104780000830110509F045CF0F900F900F900F9052
:104790000F90DF91CF911F910F91FF90EF90DF90DD
:1047A000CF90BF90AF909F908F907F906F905F90D1
:1047B0004F903F902F9008952F923F924F925F928B
:1047C0006F927F928F929F92AF92BF92CF92DF9221
:1047D000EF92FF920F931F93CF93DF9300D000D0FF
:1047E0001F92CDB7DEB79BE0492E92E0592E26E608
:1047F000222E21E0322E88248394912CD12CC12C9E
:1048000001E010E051015D824C8289E0E82EF12C3C
:104810009601215031093B832A83F50186899789C6
:104820009701215031093901892B09F4AFC0B70133
:10483000C6010E94CF218983B701C6010E94A82129
:1048400039813323A9F0882399F0B701C4010E946C
:10485000CF21882369F0EC81FD81138B028B118BB2
:10486000008B17A306A315A304A3F1E0F093410165
:10487000B701C6010E94A8218823C9F0B701C4016D
:104880000E94CF21882399F0B301C4010E94A8217E
:10489000882369F0EC81FD81138B028B17A306A39B
:1048A00015A304A311AF00AFF1E0F0934101B701EC
:1048B000C6010E94A821882309F129E0E216F1042B
:1048C000E9F0B7016F5F7F4FF50122A533A584A5FD
:1048D00095A52817390791F4C4010E94A8218823BF
:1048E00069F0EC81FD81138B028B17A306A311A73E
:1048F00000A715AF04AFF1E0F0934101B701C60185
:104900000E94CF218823C9F0B301C6010E94A821CB
:10491000882399F0B301C4010E94CF21882369F054
:10492000EC81FD81138B028B118B008B15A304A3EB
:1049300013A302A3F1E0F0934101B701C6010E9465
:10494000CF21882319F1C114D10401F1F501248983
:1049500035898081918128173907C1F4B3018A8193
:104960009B810E94CF21882389F0EC81FD81138BEC
:10497000028B118B008B349711830083EC81FD81B6
:10498000369711830083F1E0F09341012C813D8142
:10499000225031093D832C83730132E0A31AB10800
:1049A000672809F03ACF8FEFC81AD80A9FEF891A03
:1049B000990AE4E14E0E511CF4E12F0E311C28E05F
:1049C000C216D10409F01ECF0F900F900F900F90D8
:1049D0000F90DF91CF911F910F91FF90EF90DF909B
:1049E000CF90BF90AF909F908F907F906F905F908F
:1049F0004F903F902F900895CF92DF92EF92FF92C9
:104A00000F931F93CF93DF938AE6E82E81E0F82E71
:104A1000C3E0D0E0670102E010E0F6012081220F40
:104A2000220F80914301280F47E452E3BE01C801E1
:104A30000E94D820F4E1CF0ED11C0A5F1F4F023331
:104A4000110559F782E0E80EF11C2696CF33D10507
:104A500009F7DF91CF911F910F91FF90EF90DF90B9
:104A6000CF900895DF92EF92FF920F931F93CF9311
:104A7000DF93109242018AE6E82E81E0F82E18E0DA
:104A8000DD24D394E70109E08A899B89892B61F4AD
:104A900088899989009741F09B8B8A8B198A188A9B
:104AA0000E94FC24D0924201015022970111ECCFC8
:104AB000115084E1E80EF11C1111E4CFDF91CF9188
:104AC0001F910F91FF90EF90DF900895E9E4F1E0DE
:104AD00090E021913191232B09F09F5F81E0EB352C
:104AE000F807B9F781E0923008F080E008958BE094
:104AF00092E030E020E0F901EE0FFF1FE80FF91F10
:104B0000118210822F5F3F4F2A303105A1F7449662
:104B100022E08B3A920769F70895CF93DF93609173
:104B20000A028091660190916701A0916801B0919D
:104B300069014BE052E0EAE6F1E030E020E0EA0112
:104B4000C20FD31F0990D881C02D219749F4EF01DE
:104B5000C20FD31F19821882C296A11DB11D61E038
:104B60002E5F3F4F2431310551F74C5E5F4F7496F5
:104B700022E04B3A520709F760930A0280936601DC
:104B800090936701A0936801B0936901662309F4CB
:104B900040C0409162015091630160916401709145
:104BA0006501840F951FA61FB71F80936601909320
:104BB0006701A0936801B09369014C505E4F6F4F3D
:104BC0007F4F40936201509363016093640170933F
:104BD0006501809161018F5F8093610191E0909305
:104BE0006001823020F090935F0190935E0164E653
:104BF00070E088EB91E00E94B62064E670E080E00F
:104C000090E00E94421F68EC70E087E194E00E940F
:104C1000B62010920A02DF91CF910C9477258091F3
:104C2000BA029091BB0265E070E00E949034892B3B
:104C300031F480912D018F5F877080932D0120E0EA
:104C40004AE758E06BE170E083E190E00E94D820F1
:104C5000E0912D01F0E0E153F64F649170E020E027
:104C600049E157E085E090E00E94D8208CE00E9466
:104C7000FC20882319F081E08093C00208958CE025
:104C80000E94FC20882319F081E08093C0020895DF
:104C900080912C01883760F48F5F80932C0120E095
:104CA0004EEA54E064E070E082E290E00C94D82098
:104CB00081E08093C00210922C0108958091BA0285
:104CC0009091BB0265E070E00E949034892B31F432
:104CD00080912D018F5F877080932D0120E04CEA39
:104CE00050E070E060E090E080E00C94D8200F93FA
:104CF0001F93CF930E945E26C09100012C2F22505B
:104D0000330BC90128E1289F8001299F100D112430
:104D100020E043EB56E064E370E0C80141960E9456
:104D2000D22020E044E556E066E370E083E190E0C5
:104D30000E94DE2080912D0190E0FC01E154F64FAD
:104D400024918953964FFC0184916CE270E0681BBA
:104D5000710947E859E0C80149960E94D22080E4D1
:104D60000E94FC20882329F0C53018F4CF5FC0933F
:104D7000000180E20E94FC20882339F0809100012C
:104D8000833018F08150809300018CE00E94FC2059
:104D9000882321F0809100018093C002CF911F9160
:104DA0000F910895CF92DF92EF92FF9282E090E010
:104DB000909346018093450110924801109247015B
:104DC000E9E4F1E08BE591E0119211928E179F07D3
:104DD000D9F7809131019091320190934C018093E9
:104DE0004B01809133019091340190935201809353
:104DF0005101809135019091360190933201809359
:104E00003101809137019091380190933401809362
:104E100033018091390190913A019093360180934A
:104E2000350180913B0190913C0190933801809332
:104E300037010E94723325E0C22ED12CE12CF12CD7
:104E4000A70196010E9421346F5F7F4F8F4F9F4FC4
:104E500070933A01609339010E947233A701960161
:104E60000E9421346F5F7F4F8F4F9F4F70933C01A3
:104E700060933B01FF90EF90DF90CF900895CF9229
:104E8000DF92EF92FF92CF93DF9310926601109220
:104E900067011092680110926901109243018AE63D
:104EA00091E030E020E0F901EE0FFF1FE80FF91F5D
:104EB000118210822F5F3F4F2A303105A1F74496AF
:104EC00022E08A30920769F70E947725C1E3D1E09A
:104ED00083E0C82ED12CE12CF12C0E947233A70163
:104EE00096010E9421346F5F7F4F8F4F9F4F6993D0
:104EF000799381E0CD33D80781F70E94D2261092B2
:104F00000A0281E08093420110925E0110925B01DF
:104F1000109260011092410110925F018CE3809326
:104F20005C01809344011092610110925D01109226
:104F3000400110923F0110923E0110923D0186E027
:104F40008093C002DF91CF91FF90EF90DF90CF90E0
:104F500008958F929F92AF92BF92CF92DF92EF927D
:104F6000FF920F931F93CF93DF93CDB7DEB72A97AE
:104F70000FB6F894DEBF0FBECDBF4C016B0162507F
:104F8000710920E04DE85AE003970E94DE2060910D
:104F900066017091670180916801909169012AE032
:104FA000AE014F5F5F4F7A010E94CA33F701019053
:104FB0000020E9F73197EE19FF09AE2E0AE00E1B2B
:104FC000B12C002E000C110B8B2D90E08017910757
:104FD0002CF1000F111F000F111F080D191D912C2E
:104FE0000A2C000CBB08892D90E08A159B0534F52E
:104FF000F701E80FF91F20812133F4F020532A3004
:10500000D8F4880F991F880F991F4DE65AE0B60112
:10501000800F911F0E94D8209394E5CF880F991F8D
:10502000880F991F20E04DE65AE0B601880D991DC2
:105030000E94D820B394C8CF20E0E3CF2A960FB6C1
:10504000F894DEBF0FBECDBFDF91CF911F910F91BE
:10505000FF90EF90DF90CF90BF90AF909F908F9098
:1050600008950E9407210E9424210E948A1D20E0A9
:1050700046E655E36CE070E084E090E00E94D820C2
:1050800029E04BE266E270E084E090E00E94561D69
:1050900068E270E086E090E00E94A9278CE00E9420
:1050A000FC20882319F081E08093C00208956F925C
:1050B0007F928F929F92AF92BF92CF92DF92EF92A8
:1050C000FF920F931F93CF93DF9390915E012091F6
:1050D00060018091C0028730B9F0EAE6F1E04AE071
:1050E00052E060857185672B61F481E0911104C005
:1050F00084E0211101C080E074964E175F0789F7A4
:1051000001C082E080935D01222319F084E0809346
:105110005D01992319F081E080935D01C091BA028D
:10512000D091BB02CE0164E170E00E949034892BE3
:1051300031F4809143018F5F837080934301CE01EE
:1051400066E070E00E9490347C01892B41F48091EC
:105150003F018F5F65E10E94843490933F0110917D
:105160005D01123009F4D9C008F073C0112309F4AD
:1051700097C0113009F4ACC00E948A1D20E04FE5B1
:1051800051E362E070E086E390E00E94D2201330A9
:1051900009F41CC118F0143009F031C10E94FC243C
:1051A00080914101882309F4A7C12BE0C22E22E09F
:1051B000D22E02E010E036E0A32ED0E0C0E0B090A6
:1051C0002E01FE01EE0FFF1FEC0DFD1D8081918170
:1051D000019789F4EB2DF0E0ED5BFD4C2491AC9E42
:1051E000B001AD9E700D11246D5F7F4F49E152E318
:1051F000C8010E94D2202196CA30D10501F7F4E1FE
:10520000CF0ED11C0A5F1F4F02331105B1F6EF28F4
:1052100019F4B394B0922E0180912E01843008F4D9
:105220006BC110922E01109241018091420188239E
:1052300009F45FC180914101811102C00E948D2556
:105240000E9432250E94DC230E94ED220E94F02160
:10525000ECCF133009F471C0143009F08DCFC09138
:105260003D01EC2FF0E0E75AFE4C249147EB57E26A
:1052700070E060E083E390E00E94D820E114F10444
:1052800019F4CF5FC0933D0180913D01863008F451
:10529000A1C110923D011092600110925E016CCF8D
:1052A00020E04EE553E170E060E083E390E00E948F
:1052B000D820E0913F01F0E0E75BFC4E249141E112
:1052C00052E168E170E08FE490E00E94D82054CF72
:1052D00000913E01E02FF0E0E659F04E249148ECB9
:1052E00055E170E060E083E390E00E94D820CE01B9
:1052F0006AE070E00E949034892B19F40F5F0093EC
:105300003E0180913E018A3008F464C110923E0152
:1053100010925E01109260012FCFE114F10441F46C
:10532000809140018F5F63E00E948434909340013C
:105330000E9407210E9424211FCF0E940721C091B3
:105340003F01D0E0FE01EE55F84D649170E020E0A1
:1053500040EA55E283E390E00E94D220CE018557D7
:105360009A4D5C01FC016491CE018A589A4D6C0102
:10537000FC01849170E071956195710920E048ED20
:1053800051E290E00E94D220FE01ED53FE4D649167
:10539000FE01E355FE4D849170E020E04BEB5FE1B0
:1053A00090E00E94D220FE01EA55F04E2491F501D2
:1053B000A490F60184916BE270E06A19710990E0A3
:1053C00044E75FE14F960E94DE20D6CE26E14AE018
:1053D00064E070E088E390E00E94561D2BE045E019
:1053E0006AE070E086E490E00E94561D20E041E50E
:1053F00055E36DE070E088E390E00E94DE2029E054
:105400004FE264E370E085E390E00E94561D66E39E
:1054100070E089E390E00E94A92780915B018823D6
:1054200089F110912F01C12FD0E0FE01ED57FB4C07
:10543000649170E020E045EC53E382E090E00E944C
:10544000D220FE01E354FC4C649170E020E04BE577
:1054500053E380E190E00E94D2208091BA029091C3
:10546000BB0266E070E00E949034892B19F41F5F44
:1054700010932F0180912F01883020F010922F017E
:1054800010925B0180915F01882321F1C09130016E
:10549000EC2FF0E0E75BFA4C649170E020E04BE821
:1054A00054E382E090E00E94D2208091BA02909171
:1054B000BB0266E070E00E949034892B19F4CF5F44
:1054C000C093300180913001883020F0109230017B
:1054D00010925F01DF91CF911F910F91FF90EF909C
:1054E000DF90CF90BF90AF909F908F907F906F9004
:1054F000089581E080934201209147013091480155
:1055000086E0829F3001839F700C1124E301239673
:105510002091450130914601829F8001839F100DAB
:105520001124480182E0880E911C89E4C82E81E094
:10553000D82E95E1690E711C0C5E1F4F6C167D060E
:1055400001F1560174010E151F05B1F0F50121910D
:1055500031915F01121613065CF4220F220F809125
:105560004301280F47E452E3BE01C7010E94D8203F
:10557000F6E0EF0EF11CE7CF269686E0C80ED11CB0
:10558000DDCF2091310141EE52E364E070E088E329
:1055900090E00E94D8202091330141EE52E360E177
:1055A00070E088E390E00E94D8202091350141EC22
:1055B00052E36AE070E086E490E00E94D8202091F7
:1055C000370141EC52E360E170E086E490E00E9434
:1055D000D82015CF0E948A1D20E04FE551E362E0FC
:1055E00070E086E390E00E94D220D8CD83E08093E3
:1055F0005D010E94572880E80E94FC20882329F042
:1056000086E08093C00210925D0108956F927F92B0
:105610008F929F92AF92BF92CF92DF92EF92FF92C2
:105620000F931F93CF93DF9300914701109148018F
:1056300068018FEFC81AD80AE0904501F090460142
:1056400080914B0190914C01892B09F043C08091CE
:10565000570190915801892BE9F5083011050CF09C
:105660004DC08AE08E9DE0018F9DD00D1124C00FAA
:10567000D11FCC0FDD1FC659DE4F79E4872E71E0B4
:10568000972E3801660C771C71946194710856014D
:10569000AA0CBB1C8C819D81892B99F00E946625E8
:1056A00081110FC0F40186819781009751F0FE01AE
:1056B000E60DF71DEA0DFB1D91838083F40117822F
:1056C00016826496F2E08F0E911C8FE4881681E0BA
:1056D000980601F70115110589F4C701019624E127
:1056E000289FF001299FF00D1124E659FE4F80817B
:1056F0009181892B19F088E08093C002B601C7011F
:105700000E945521882319F1D0924801C092470187
:105710006AE070E088E690E00E94B6201092620194
:105720001092630110926401109265011092610160
:10573000DF91CF911F910F91FF90EF90DF90CF906D
:10574000BF90AF909F908F907F906F9008958091C1
:10575000C002883069F369E471E02AE02E9DC0013F
:105760002F9D900D1124080F191F30E020E054E107
:10577000F52E2330310511F1C901800F911F880FDB
:10578000991F86599E4FDB0150E040E043305105A0
:1057900081F0CD91DD91209749F0F49EF001F59EC6
:1057A000F00D1124E80FF91FD183C0834F5F5F4FC5
:1057B000EDCF2F5F3F4F6A5F7F4FDBCF8091660158
:1057C00090916701A0916801B09169010A96A11DAD
:1057D000B11D8093660190936701A0936801B09317
:1057E000690180914201882389F00E9457280E9414
:1057F000DC230E94ED220E94F02180914101811161
:1058000002C00E948D250E943225EBCF81E080935B
:105810004201DF91CF911F910F91FF90EF90DF90A8
:10582000CF90BF90AF909F908F907F906F900C948F
:10583000D226CF93DF9360915C0170E08091BA0231
:105840009091BB020E949034892B31F480915B01CE
:10585000811102C00E94062B0E9457288091660188
:1058600090916701A0916801B0916901883823E1A6
:105870009207A105B10508F08AC08CE380935C0112
:1058800080915C0190914401981729F091E09093E8
:105890005B018093440180E40E94FC20882309F48A
:1058A000A7C00E946625C0914501D091460121966E
:1058B000882309F4ABC084E00E94FC20882309F40B
:1058C000BDC00E946625811127C080914B01909137
:1058D0004C0120914F013091500130934C012093A5
:1058E0004B01209157013091580130935001209382
:1058F0004F0120915301309154013093580120936E
:1059000057019927909354018093530169E170E006
:105910008AE491E00E94B6206091470170914801AD
:1059200080914501909146010E945521811121C02D
:1059300080914B0190914C01209153013091540181
:1059400030934C0120934B01209157013091580125
:10595000309354012093530120914F013091500115
:1059600030935801209357019927909350018093C9
:105970004F0180E80E94FC20882331F087E080936B
:10598000C00283E080935D01DF91CF910895803163
:1059900027E29207A105B10510F487E36FCF88399C
:1059A0002AE39207A105B10510F482E367CF8032A4
:1059B0002EE49207A105B10510F48DE25FCF883A7D
:1059C00021E69207A105B10510F488E257CF803592
:1059D00023EC9207A105B10510F48EE14FCF803A78
:1059E0009648A140B10510F484E148CF8AE046CF43
:1059F00080E20E94FC208823C1F00E94662581116C
:105A00005ACFC0914501D09146012197609147013D
:105A100070914801CE010E945521882309F44BCF93
:105A2000D0934601C093450146CF80E10E94FC20FF
:105A3000882309F440CF0E94062B3DCF88E00E94C6
:105A4000FC20882309F495CF0E946625811127C088
:105A500080914B0190914C01209153013091540160
:105A600030934C0120934B01209157013091580104
:105A7000309354012093530120914F0130915001F4
:105A800030935801209357019927909350018093A8
:105A90004F0169E170E08AE491E00E94B6206091D4
:105AA00047017091480180914501909146010E9403
:105AB000552181115ECF80914B0190914C01209135
:105AC0004F013091500130934C0120934B012091B4
:105AD0005701309158013093500120934F0120918C
